{
	"VotingContract.sol": {
		"VotingSystem": {
			"abi": [
				{
					"anonymous": false,
					"inputs": [
						{
							"indexed": true,
							"internalType": "address",
							"name": "addr",
							"type": "address"
						},
						{
							"indexed": false,
							"internalType": "bool",
							"name": "_vote",
							"type": "bool"
						}
					],
					"name": "CastVote",
					"type": "event"
				},
				{
					"anonymous": false,
					"inputs": [
						{
							"indexed": true,
							"internalType": "string",
							"name": "c_name",
							"type": "string"
						},
						{
							"indexed": false,
							"internalType": "string",
							"name": "message",
							"type": "string"
						}
					],
					"name": "DeclareWinner",
					"type": "event"
				},
				{
					"inputs": [
						{
							"internalType": "string",
							"name": "_name",
							"type": "string"
						}
					],
					"name": "declare_winner",
					"outputs": [
						{
							"internalType": "string",
							"name": "",
							"type": "string"
						}
					],
					"stateMutability": "nonpayable",
					"type": "function"
				},
				{
					"inputs": [],
					"name": "message",
					"outputs": [
						{
							"internalType": "string",
							"name": "",
							"type": "string"
						}
					],
					"stateMutability": "view",
					"type": "function"
				},
				{
					"inputs": [
						{
							"internalType": "string",
							"name": "_name",
							"type": "string"
						},
						{
							"internalType": "uint256",
							"name": "_age",
							"type": "uint256"
						},
						{
							"internalType": "bool",
							"name": "_vote",
							"type": "bool"
						}
					],
					"name": "registerVoter",
					"outputs": [
						{
							"internalType": "string",
							"name": "",
							"type": "string"
						}
					],
					"stateMutability": "nonpayable",
					"type": "function"
				}
			],
			"devdoc": {
				"kind": "dev",
				"methods": {},
				"version": 1
			},
			"evm": {
				"assembly": "    /* \"VotingContract.sol\":74:2796  contract VotingSystem {\r... */\n  mstore(0x40, 0x80)\n  callvalue\n  dup1\n  iszero\n  tag_1\n  jumpi\n  0x00\n  dup1\n  revert\ntag_1:\n  pop\n  dataSize(sub_0)\n  dup1\n  dataOffset(sub_0)\n  0x00\n  codecopy\n  0x00\n  return\nstop\n\nsub_0: assembly {\n        /* \"VotingContract.sol\":74:2796  contract VotingSystem {\r... */\n      mstore(0x40, 0x80)\n      callvalue\n      dup1\n      iszero\n      tag_1\n      jumpi\n      0x00\n      dup1\n      revert\n    tag_1:\n      pop\n      jumpi(tag_2, lt(calldatasize, 0x04))\n      shr(0xe0, calldataload(0x00))\n      dup1\n      0x35da56dc\n      eq\n      tag_3\n      jumpi\n      dup1\n      0x740f9660\n      eq\n      tag_4\n      jumpi\n      dup1\n      0xe21f37ce\n      eq\n      tag_5\n      jumpi\n    tag_2:\n      0x00\n      dup1\n      revert\n        /* \"VotingContract.sol\":1776:2793  function declare_winner(string memory _name) public returns(string memory){\r... */\n    tag_3:\n      tag_6\n      0x04\n      dup1\n      calldatasize\n      sub\n      dup2\n      add\n      swap1\n      tag_7\n      swap2\n      swap1\n      tag_8\n      jump\t// in\n    tag_7:\n      tag_9\n      jump\t// in\n    tag_6:\n      mload(0x40)\n      tag_10\n      swap2\n      swap1\n      tag_11\n      jump\t// in\n    tag_10:\n      mload(0x40)\n      dup1\n      swap2\n      sub\n      swap1\n      return\n        /* \"VotingContract.sol\":1099:1709  function registerVoter(string memory _name, uint256 _age, bool _vote) public AgeCheck(msg.sender) ToRegister(msg.sender) returns (string memory)  {\r... */\n    tag_4:\n      tag_12\n      0x04\n      dup1\n      calldatasize\n      sub\n      dup2\n      add\n      swap1\n      tag_13\n      swap2\n      swap1\n      tag_14\n      jump\t// in\n    tag_13:\n      tag_15\n      jump\t// in\n    tag_12:\n      mload(0x40)\n      tag_16\n      swap2\n      swap1\n      tag_11\n      jump\t// in\n    tag_16:\n      mload(0x40)\n      dup1\n      swap2\n      sub\n      swap1\n      return\n        /* \"VotingContract.sol\":136:158  string public  message */\n    tag_5:\n      tag_17\n      tag_18\n      jump\t// in\n    tag_17:\n      mload(0x40)\n      tag_19\n      swap2\n      swap1\n      tag_11\n      jump\t// in\n    tag_19:\n      mload(0x40)\n      dup1\n      swap2\n      sub\n      swap1\n      return\n        /* \"VotingContract.sol\":1776:2793  function declare_winner(string memory _name) public returns(string memory){\r... */\n    tag_9:\n        /* \"VotingContract.sol\":1836:1849  string memory */\n      0x60\n        /* \"VotingContract.sol\":1861:1878  uint256 yes_votes */\n      0x00\n        /* \"VotingContract.sol\":1893:1909  uint256 no_votes */\n      dup1\n        /* \"VotingContract.sol\":1929:1938  uint256 i */\n      0x00\n        /* \"VotingContract.sol\":1924:2325  for (uint256 i=0; i < candidate_details[_name].votes.length ; i++) {\r... */\n    tag_21:\n        /* \"VotingContract.sol\":1946:1963  candidate_details */\n      0x08\n        /* \"VotingContract.sol\":1964:1969  _name */\n      dup6\n        /* \"VotingContract.sol\":1946:1970  candidate_details[_name] */\n      mload(0x40)\n      tag_24\n      swap2\n      swap1\n      tag_25\n      jump\t// in\n    tag_24:\n      swap1\n      dup2\n      mstore\n      0x20\n      add\n      mload(0x40)\n      dup1\n      swap2\n      sub\n      swap1\n      keccak256\n        /* \"VotingContract.sol\":1946:1976  candidate_details[_name].votes */\n      0x01\n      add\n        /* \"VotingContract.sol\":1946:1983  candidate_details[_name].votes.length */\n      dup1\n      sload\n      swap1\n      pop\n        /* \"VotingContract.sol\":1942:1943  i */\n      dup2\n        /* \"VotingContract.sol\":1942:1983  i < candidate_details[_name].votes.length */\n      lt\n        /* \"VotingContract.sol\":1924:2325  for (uint256 i=0; i < candidate_details[_name].votes.length ; i++) {\r... */\n      iszero\n      tag_22\n      jumpi\n        /* \"VotingContract.sol\":2083:2106  abi.encodePacked(\"yes\") */\n      add(0x20, mload(0x40))\n      tag_26\n      swap1\n      tag_27\n      jump\t// in\n    tag_26:\n      mload(0x40)\n      0x20\n      dup2\n      dup4\n      sub\n      sub\n      dup2\n      mstore\n      swap1\n      0x40\n      mstore\n        /* \"VotingContract.sol\":2073:2107  keccak256(abi.encodePacked(\"yes\")) */\n      dup1\n      mload\n      swap1\n      0x20\n      add\n      keccak256\n        /* \"VotingContract.sol\":2036:2053  candidate_details */\n      0x08\n        /* \"VotingContract.sol\":2054:2059  _name */\n      dup7\n        /* \"VotingContract.sol\":2036:2060  candidate_details[_name] */\n      mload(0x40)\n      tag_28\n      swap2\n      swap1\n      tag_25\n      jump\t// in\n    tag_28:\n      swap1\n      dup2\n      mstore\n      0x20\n      add\n      mload(0x40)\n      dup1\n      swap2\n      sub\n      swap1\n      keccak256\n        /* \"VotingContract.sol\":2036:2066  candidate_details[_name].votes */\n      0x01\n      add\n        /* \"VotingContract.sol\":2067:2068  i */\n      dup3\n        /* \"VotingContract.sol\":2036:2069  candidate_details[_name].votes[i] */\n      dup2\n      sload\n      dup2\n      lt\n      tag_29\n      jumpi\n      mstore(0x00, 0x4e487b7100000000000000000000000000000000000000000000000000000000)\n      mstore(0x04, 0x32)\n      revert(0x00, 0x24)\n    tag_29:\n      swap1\n      0x00\n      mstore\n      keccak256(0x00, 0x20)\n      add\n        /* \"VotingContract.sol\":2019:2070  abi.encodePacked(candidate_details[_name].votes[i]) */\n      add(0x20, mload(0x40))\n      tag_31\n      swap2\n      swap1\n      tag_32\n      jump\t// in\n    tag_31:\n      mload(0x40)\n      0x20\n      dup2\n      dup4\n      sub\n      sub\n      dup2\n      mstore\n      swap1\n      0x40\n      mstore\n        /* \"VotingContract.sol\":2009:2071  keccak256(abi.encodePacked(candidate_details[_name].votes[i])) */\n      dup1\n      mload\n      swap1\n      0x20\n      add\n      keccak256\n        /* \"VotingContract.sol\":2009:2107  keccak256(abi.encodePacked(candidate_details[_name].votes[i]))==keccak256(abi.encodePacked(\"yes\")) */\n      eq\n        /* \"VotingContract.sol\":2006:2154  if(keccak256(abi.encodePacked(candidate_details[_name].votes[i]))==keccak256(abi.encodePacked(\"yes\"))){\r... */\n      iszero\n      tag_33\n      jumpi\n        /* \"VotingContract.sol\":2127:2138  yes_votes++ */\n      dup3\n      dup1\n      tag_34\n      swap1\n      tag_35\n      jump\t// in\n    tag_34:\n      swap4\n      pop\n      pop\n        /* \"VotingContract.sol\":2006:2154  if(keccak256(abi.encodePacked(candidate_details[_name].votes[i]))==keccak256(abi.encodePacked(\"yes\"))){\r... */\n    tag_33:\n        /* \"VotingContract.sol\":2245:2267  abi.encodePacked(\"no\") */\n      add(0x20, mload(0x40))\n      tag_36\n      swap1\n      tag_37\n      jump\t// in\n    tag_36:\n      mload(0x40)\n      0x20\n      dup2\n      dup4\n      sub\n      sub\n      dup2\n      mstore\n      swap1\n      0x40\n      mstore\n        /* \"VotingContract.sol\":2235:2268  keccak256(abi.encodePacked(\"no\")) */\n      dup1\n      mload\n      swap1\n      0x20\n      add\n      keccak256\n        /* \"VotingContract.sol\":2198:2215  candidate_details */\n      0x08\n        /* \"VotingContract.sol\":2216:2221  _name */\n      dup7\n        /* \"VotingContract.sol\":2198:2222  candidate_details[_name] */\n      mload(0x40)\n      tag_38\n      swap2\n      swap1\n      tag_25\n      jump\t// in\n    tag_38:\n      swap1\n      dup2\n      mstore\n      0x20\n      add\n      mload(0x40)\n      dup1\n      swap2\n      sub\n      swap1\n      keccak256\n        /* \"VotingContract.sol\":2198:2228  candidate_details[_name].votes */\n      0x01\n      add\n        /* \"VotingContract.sol\":2229:2230  i */\n      dup3\n        /* \"VotingContract.sol\":2198:2231  candidate_details[_name].votes[i] */\n      dup2\n      sload\n      dup2\n      lt\n      tag_39\n      jumpi\n      mstore(0x00, 0x4e487b7100000000000000000000000000000000000000000000000000000000)\n      mstore(0x04, 0x32)\n      revert(0x00, 0x24)\n    tag_39:\n      swap1\n      0x00\n      mstore\n      keccak256(0x00, 0x20)\n      add\n        /* \"VotingContract.sol\":2181:2232  abi.encodePacked(candidate_details[_name].votes[i]) */\n      add(0x20, mload(0x40))\n      tag_41\n      swap2\n      swap1\n      tag_32\n      jump\t// in\n    tag_41:\n      mload(0x40)\n      0x20\n      dup2\n      dup4\n      sub\n      sub\n      dup2\n      mstore\n      swap1\n      0x40\n      mstore\n        /* \"VotingContract.sol\":2171:2233  keccak256(abi.encodePacked(candidate_details[_name].votes[i])) */\n      dup1\n      mload\n      swap1\n      0x20\n      add\n      keccak256\n        /* \"VotingContract.sol\":2171:2268  keccak256(abi.encodePacked(candidate_details[_name].votes[i]))==keccak256(abi.encodePacked(\"no\")) */\n      eq\n        /* \"VotingContract.sol\":2168:2314  if(keccak256(abi.encodePacked(candidate_details[_name].votes[i]))==keccak256(abi.encodePacked(\"no\"))){\r... */\n      iszero\n      tag_42\n      jumpi\n        /* \"VotingContract.sol\":2288:2298  no_votes++ */\n      dup2\n      dup1\n      tag_43\n      swap1\n      tag_35\n      jump\t// in\n    tag_43:\n      swap3\n      pop\n      pop\n        /* \"VotingContract.sol\":2168:2314  if(keccak256(abi.encodePacked(candidate_details[_name].votes[i]))==keccak256(abi.encodePacked(\"no\"))){\r... */\n    tag_42:\n        /* \"VotingContract.sol\":1986:1989  i++ */\n      dup1\n      dup1\n      tag_44\n      swap1\n      tag_35\n      jump\t// in\n    tag_44:\n      swap2\n      pop\n      pop\n        /* \"VotingContract.sol\":1924:2325  for (uint256 i=0; i < candidate_details[_name].votes.length ; i++) {\r... */\n      jump(tag_21)\n    tag_22:\n      pop\n        /* \"VotingContract.sol\":2354:2359  _name */\n      dup4\n        /* \"VotingContract.sol\":2340:2369  DeclareWinner(_name, message) */\n      mload(0x40)\n      tag_45\n      swap2\n      swap1\n      tag_25\n      jump\t// in\n    tag_45:\n      mload(0x40)\n      dup1\n      swap2\n      sub\n      swap1\n      keccak256\n      0x0737b1b054db2ae40fa5d974a99774f13c515d19b1fed0735ac53e0224f8c381\n        /* \"VotingContract.sol\":2361:2368  message */\n      0x01\n        /* \"VotingContract.sol\":2340:2369  DeclareWinner(_name, message) */\n      mload(0x40)\n      tag_46\n      swap2\n      swap1\n      tag_47\n      jump\t// in\n    tag_46:\n      mload(0x40)\n      dup1\n      swap2\n      sub\n      swap1\n      log2\n        /* \"VotingContract.sol\":2399:2407  no_votes */\n      dup1\n        /* \"VotingContract.sol\":2387:2396  yes_votes */\n      dup3\n        /* \"VotingContract.sol\":2387:2407  yes_votes > no_votes */\n      gt\n        /* \"VotingContract.sol\":2383:2679  if (yes_votes > no_votes){\r... */\n      iszero\n      tag_48\n      jumpi\n        /* \"VotingContract.sol\":2458:2463  _name */\n      dup4\n        /* \"VotingContract.sol\":2440:2493  abi.encodePacked( _name, \" has been declared winner\") */\n      add(0x20, mload(0x40))\n      tag_49\n      swap2\n      swap1\n      tag_50\n      jump\t// in\n    tag_49:\n      mload(0x40)\n      0x20\n      dup2\n      dup4\n      sub\n      sub\n      dup2\n      mstore\n      swap1\n      0x40\n      mstore\n        /* \"VotingContract.sol\":2423:2430  message */\n      0x01\n        /* \"VotingContract.sol\":2423:2494  message = string(abi.encodePacked( _name, \" has been declared winner\")) */\n      swap1\n      dup1\n      mload\n      swap1\n      0x20\n      add\n      swap1\n      tag_51\n      swap3\n      swap2\n      swap1\n      tag_52\n      jump\t// in\n    tag_51:\n      pop\n        /* \"VotingContract.sol\":2383:2679  if (yes_votes > no_votes){\r... */\n      jump(tag_53)\n    tag_48:\n        /* \"VotingContract.sol\":2527:2535  no_votes */\n      dup1\n        /* \"VotingContract.sol\":2515:2524  yes_votes */\n      dup3\n        /* \"VotingContract.sol\":2515:2535  yes_votes < no_votes */\n      lt\n        /* \"VotingContract.sol\":2511:2679  if (yes_votes < no_votes){\r... */\n      iszero\n      tag_54\n      jumpi\n        /* \"VotingContract.sol\":2586:2591  _name */\n      dup4\n        /* \"VotingContract.sol\":2568:2600  abi.encodePacked( _name, \"lost\") */\n      add(0x20, mload(0x40))\n      tag_55\n      swap2\n      swap1\n      tag_56\n      jump\t// in\n    tag_55:\n      mload(0x40)\n      0x20\n      dup2\n      dup4\n      sub\n      sub\n      dup2\n      mstore\n      swap1\n      0x40\n      mstore\n        /* \"VotingContract.sol\":2551:2558  message */\n      0x01\n        /* \"VotingContract.sol\":2551:2601  message = string(abi.encodePacked( _name, \"lost\")) */\n      swap1\n      dup1\n      mload\n      swap1\n      0x20\n      add\n      swap1\n      tag_57\n      swap3\n      swap2\n      swap1\n      tag_52\n      jump\t// in\n    tag_57:\n      pop\n        /* \"VotingContract.sol\":2511:2679  if (yes_votes < no_votes){\r... */\n      jump(tag_58)\n    tag_54:\n        /* \"VotingContract.sol\":2640:2667  message = \" ended in a tie\" */\n      mload(0x40)\n      dup1\n      0x40\n      add\n      0x40\n      mstore\n      dup1\n      0x0f\n      dup2\n      mstore\n      0x20\n      add\n      0x20656e64656420696e2061207469650000000000000000000000000000000000\n      dup2\n      mstore\n      pop\n        /* \"VotingContract.sol\":2640:2647  message */\n      0x01\n        /* \"VotingContract.sol\":2640:2667  message = \" ended in a tie\" */\n      swap1\n      dup1\n      mload\n      swap1\n      0x20\n      add\n      swap1\n      tag_59\n      swap3\n      swap2\n      swap1\n      tag_52\n      jump\t// in\n    tag_59:\n      pop\n        /* \"VotingContract.sol\":2511:2679  if (yes_votes < no_votes){\r... */\n    tag_58:\n        /* \"VotingContract.sol\":2383:2679  if (yes_votes > no_votes){\r... */\n    tag_53:\n        /* \"VotingContract.sol\":2708:2713  _name */\n      dup4\n        /* \"VotingContract.sol\":2694:2723  DeclareWinner(_name, message) */\n      mload(0x40)\n      tag_60\n      swap2\n      swap1\n      tag_25\n      jump\t// in\n    tag_60:\n      mload(0x40)\n      dup1\n      swap2\n      sub\n      swap1\n      keccak256\n      0x0737b1b054db2ae40fa5d974a99774f13c515d19b1fed0735ac53e0224f8c381\n        /* \"VotingContract.sol\":2715:2722  message */\n      0x01\n        /* \"VotingContract.sol\":2694:2723  DeclareWinner(_name, message) */\n      mload(0x40)\n      tag_61\n      swap2\n      swap1\n      tag_47\n      jump\t// in\n    tag_61:\n      mload(0x40)\n      dup1\n      swap2\n      sub\n      swap1\n      log2\n        /* \"VotingContract.sol\":2769:2774  _name */\n      dup4\n        /* \"VotingContract.sol\":2776:2783  message */\n      0x01\n        /* \"VotingContract.sol\":2751:2784  abi.encodePacked( _name, message) */\n      add(0x20, mload(0x40))\n      tag_62\n      swap3\n      swap2\n      swap1\n      tag_63\n      jump\t// in\n    tag_62:\n      mload(0x40)\n      0x20\n      dup2\n      dup4\n      sub\n      sub\n      dup2\n      mstore\n      swap1\n      0x40\n      mstore\n        /* \"VotingContract.sol\":2737:2785  return string(abi.encodePacked( _name, message)) */\n      swap3\n      pop\n      pop\n      pop\n        /* \"VotingContract.sol\":1776:2793  function declare_winner(string memory _name) public returns(string memory){\r... */\n      swap2\n      swap1\n      pop\n      jump\t// out\n        /* \"VotingContract.sol\":1099:1709  function registerVoter(string memory _name, uint256 _age, bool _vote) public AgeCheck(msg.sender) ToRegister(msg.sender) returns (string memory)  {\r... */\n    tag_15:\n        /* \"VotingContract.sol\":1229:1242  string memory */\n      0x60\n        /* \"VotingContract.sol\":1185:1195  msg.sender */\n      caller\n        /* \"VotingContract.sol\":647:649  18 */\n      0x12\n        /* \"VotingContract.sol\":621:634  voter_details */\n      0x07\n        /* \"VotingContract.sol\":621:640  voter_details[addr] */\n      0x00\n        /* \"VotingContract.sol\":635:639  addr */\n      dup4\n        /* \"VotingContract.sol\":621:640  voter_details[addr] */\n      0xffffffffffffffffffffffffffffffffffffffff\n      and\n      0xffffffffffffffffffffffffffffffffffffffff\n      and\n      dup2\n      mstore\n      0x20\n      add\n      swap1\n      dup2\n      mstore\n      0x20\n      add\n      0x00\n      keccak256\n        /* \"VotingContract.sol\":621:644  voter_details[addr].age */\n      0x01\n      add\n      sload\n        /* \"VotingContract.sol\":621:649  voter_details[addr].age > 18 */\n      gt\n        /* \"VotingContract.sol\":613:698  require(voter_details[addr].age > 18, \"You are not eligible! try again in few years\") */\n      tag_65\n      jumpi\n      mload(0x40)\n      0x08c379a000000000000000000000000000000000000000000000000000000000\n      dup2\n      mstore\n      0x04\n      add\n      tag_66\n      swap1\n      tag_67\n      jump\t// in\n    tag_66:\n      mload(0x40)\n      dup1\n      swap2\n      sub\n      swap1\n      revert\n    tag_65:\n        /* \"VotingContract.sol\":1208:1218  msg.sender */\n      caller\n        /* \"VotingContract.sol\":845:858  voter_details */\n      0x07\n        /* \"VotingContract.sol\":845:864  voter_details[addr] */\n      0x00\n        /* \"VotingContract.sol\":859:863  addr */\n      dup3\n        /* \"VotingContract.sol\":845:864  voter_details[addr] */\n      0xffffffffffffffffffffffffffffffffffffffff\n      and\n      0xffffffffffffffffffffffffffffffffffffffff\n      and\n      dup2\n      mstore\n      0x20\n      add\n      swap1\n      dup2\n      mstore\n      0x20\n      add\n      0x00\n      keccak256\n        /* \"VotingContract.sol\":845:873  voter_details[addr].hasVoted */\n      0x02\n      add\n      0x01\n      swap1\n      sload\n      swap1\n      0x0100\n      exp\n      swap1\n      div\n      0xff\n      and\n        /* \"VotingContract.sol\":844:873  !voter_details[addr].hasVoted */\n      iszero\n        /* \"VotingContract.sol\":836:902  require(!voter_details[addr].hasVoted, \"You have been registered\") */\n      tag_69\n      jumpi\n      mload(0x40)\n      0x08c379a000000000000000000000000000000000000000000000000000000000\n      dup2\n      mstore\n      0x04\n      add\n      tag_70\n      swap1\n      tag_71\n      jump\t// in\n    tag_70:\n      mload(0x40)\n      dup1\n      swap2\n      sub\n      swap1\n      revert\n    tag_69:\n        /* \"VotingContract.sol\":1256:1273  string memory val */\n      0x60\n        /* \"VotingContract.sol\":1296:1300  true */\n      0x01\n        /* \"VotingContract.sol\":1287:1300  _vote == true */\n      iszero\n      iszero\n        /* \"VotingContract.sol\":1287:1292  _vote */\n      dup6\n        /* \"VotingContract.sol\":1287:1300  _vote == true */\n      iszero\n      iszero\n      eq\n        /* \"VotingContract.sol\":1284:1396  if(_vote == true){\r... */\n      iszero\n      tag_73\n      jumpi\n        /* \"VotingContract.sol\":1312:1323  val = \"yes\" */\n      mload(0x40)\n      dup1\n      0x40\n      add\n      0x40\n      mstore\n      dup1\n      0x03\n      dup2\n      mstore\n      0x20\n      add\n      0x7965730000000000000000000000000000000000000000000000000000000000\n      dup2\n      mstore\n      pop\n      swap1\n      pop\n        /* \"VotingContract.sol\":1344:1361  candidate_details */\n      0x08\n        /* \"VotingContract.sol\":1362:1367  _name */\n      dup8\n        /* \"VotingContract.sol\":1344:1368  candidate_details[_name] */\n      mload(0x40)\n      tag_74\n      swap2\n      swap1\n      tag_25\n      jump\t// in\n    tag_74:\n      swap1\n      dup2\n      mstore\n      0x20\n      add\n      mload(0x40)\n      dup1\n      swap2\n      sub\n      swap1\n      keccak256\n        /* \"VotingContract.sol\":1344:1374  candidate_details[_name].votes */\n      0x01\n      add\n        /* \"VotingContract.sol\":1380:1383  val */\n      dup2\n        /* \"VotingContract.sol\":1344:1384  candidate_details[_name].votes.push(val) */\n      swap1\n      dup1\n      0x01\n      dup2\n      sload\n      add\n      dup1\n      dup3\n      sstore\n      dup1\n      swap2\n      pop\n      pop\n      0x01\n      swap1\n      sub\n      swap1\n      0x00\n      mstore\n      keccak256(0x00, 0x20)\n      add\n      0x00\n      swap1\n      swap2\n      swap1\n      swap2\n      swap1\n      swap2\n      pop\n      swap1\n      dup1\n      mload\n      swap1\n      0x20\n      add\n      swap1\n      tag_76\n      swap3\n      swap2\n      swap1\n      tag_52\n      jump\t// in\n    tag_76:\n      pop\n        /* \"VotingContract.sol\":1284:1396  if(_vote == true){\r... */\n    tag_73:\n        /* \"VotingContract.sol\":1418:1423  false */\n      0x00\n        /* \"VotingContract.sol\":1409:1423  _vote == false */\n      iszero\n      iszero\n        /* \"VotingContract.sol\":1409:1414  _vote */\n      dup6\n        /* \"VotingContract.sol\":1409:1423  _vote == false */\n      iszero\n      iszero\n      eq\n        /* \"VotingContract.sol\":1406:1530  if(_vote == false){\r... */\n      iszero\n      tag_77\n      jumpi\n        /* \"VotingContract.sol\":1439:1449  val = \"no\" */\n      mload(0x40)\n      dup1\n      0x40\n      add\n      0x40\n      mstore\n      dup1\n      0x02\n      dup2\n      mstore\n      0x20\n      add\n      0x6e6f000000000000000000000000000000000000000000000000000000000000\n      dup2\n      mstore\n      pop\n      swap1\n      pop\n        /* \"VotingContract.sol\":1478:1495  candidate_details */\n      0x08\n        /* \"VotingContract.sol\":1496:1501  _name */\n      dup8\n        /* \"VotingContract.sol\":1478:1502  candidate_details[_name] */\n      mload(0x40)\n      tag_78\n      swap2\n      swap1\n      tag_25\n      jump\t// in\n    tag_78:\n      swap1\n      dup2\n      mstore\n      0x20\n      add\n      mload(0x40)\n      dup1\n      swap2\n      sub\n      swap1\n      keccak256\n        /* \"VotingContract.sol\":1478:1508  candidate_details[_name].votes */\n      0x01\n      add\n        /* \"VotingContract.sol\":1514:1517  val */\n      dup2\n        /* \"VotingContract.sol\":1478:1518  candidate_details[_name].votes.push(val) */\n      swap1\n      dup1\n      0x01\n      dup2\n      sload\n      add\n      dup1\n      dup3\n      sstore\n      dup1\n      swap2\n      pop\n      pop\n      0x01\n      swap1\n      sub\n      swap1\n      0x00\n      mstore\n      keccak256(0x00, 0x20)\n      add\n      0x00\n      swap1\n      swap2\n      swap1\n      swap2\n      swap1\n      swap2\n      pop\n      swap1\n      dup1\n      mload\n      swap1\n      0x20\n      add\n      swap1\n      tag_80\n      swap3\n      swap2\n      swap1\n      tag_52\n      jump\t// in\n    tag_80:\n      pop\n        /* \"VotingContract.sol\":1406:1530  if(_vote == false){\r... */\n    tag_77:\n        /* \"VotingContract.sol\":1568:1636  Voter(_name, _age, _vote, voter_details[msg.sender].hasVoted = true) */\n      mload(0x40)\n      dup1\n      0x80\n      add\n      0x40\n      mstore\n      dup1\n        /* \"VotingContract.sol\":1574:1579  _name */\n      dup9\n        /* \"VotingContract.sol\":1568:1636  Voter(_name, _age, _vote, voter_details[msg.sender].hasVoted = true) */\n      dup2\n      mstore\n      0x20\n      add\n        /* \"VotingContract.sol\":1581:1585  _age */\n      dup8\n        /* \"VotingContract.sol\":1568:1636  Voter(_name, _age, _vote, voter_details[msg.sender].hasVoted = true) */\n      dup2\n      mstore\n      0x20\n      add\n        /* \"VotingContract.sol\":1587:1592  _vote */\n      dup7\n        /* \"VotingContract.sol\":1568:1636  Voter(_name, _age, _vote, voter_details[msg.sender].hasVoted = true) */\n      iszero\n      iszero\n      dup2\n      mstore\n      0x20\n      add\n        /* \"VotingContract.sol\":1631:1635  true */\n      0x01\n        /* \"VotingContract.sol\":1594:1607  voter_details */\n      0x07\n        /* \"VotingContract.sol\":1594:1619  voter_details[msg.sender] */\n      0x00\n        /* \"VotingContract.sol\":1608:1618  msg.sender */\n      caller\n        /* \"VotingContract.sol\":1594:1619  voter_details[msg.sender] */\n      0xffffffffffffffffffffffffffffffffffffffff\n      and\n      0xffffffffffffffffffffffffffffffffffffffff\n      and\n      dup2\n      mstore\n      0x20\n      add\n      swap1\n      dup2\n      mstore\n      0x20\n      add\n      0x00\n      keccak256\n        /* \"VotingContract.sol\":1594:1628  voter_details[msg.sender].hasVoted */\n      0x02\n      add\n      0x01\n        /* \"VotingContract.sol\":1594:1635  voter_details[msg.sender].hasVoted = true */\n      0x0100\n      exp\n      dup2\n      sload\n      dup2\n      0xff\n      mul\n      not\n      and\n      swap1\n      dup4\n      iszero\n      iszero\n      mul\n      or\n      swap1\n      sstore\n        /* \"VotingContract.sol\":1568:1636  Voter(_name, _age, _vote, voter_details[msg.sender].hasVoted = true) */\n      iszero\n      iszero\n      dup2\n      mstore\n      pop\n        /* \"VotingContract.sol\":1540:1553  voter_details */\n      0x07\n        /* \"VotingContract.sol\":1540:1565  voter_details[msg.sender] */\n      0x00\n        /* \"VotingContract.sol\":1554:1564  msg.sender */\n      caller\n        /* \"VotingContract.sol\":1540:1565  voter_details[msg.sender] */\n      0xffffffffffffffffffffffffffffffffffffffff\n      and\n      0xffffffffffffffffffffffffffffffffffffffff\n      and\n      dup2\n      mstore\n      0x20\n      add\n      swap1\n      dup2\n      mstore\n      0x20\n      add\n      0x00\n      keccak256\n        /* \"VotingContract.sol\":1540:1636  voter_details[msg.sender] = Voter(_name, _age, _vote, voter_details[msg.sender].hasVoted = true) */\n      0x00\n      dup3\n      add\n      mload\n      dup2\n      0x00\n      add\n      swap1\n      dup1\n      mload\n      swap1\n      0x20\n      add\n      swap1\n      tag_81\n      swap3\n      swap2\n      swap1\n      tag_52\n      jump\t// in\n    tag_81:\n      pop\n      0x20\n      dup3\n      add\n      mload\n      dup2\n      0x01\n      add\n      sstore\n      0x40\n      dup3\n      add\n      mload\n      dup2\n      0x02\n      add\n      exp(0x0100, 0x00)\n      dup2\n      sload\n      dup2\n      0xff\n      mul\n      not\n      and\n      swap1\n      dup4\n      iszero\n      iszero\n      mul\n      or\n      swap1\n      sstore\n      pop\n      0x60\n      dup3\n      add\n      mload\n      dup2\n      0x02\n      add\n      exp(0x0100, 0x01)\n      dup2\n      sload\n      dup2\n      0xff\n      mul\n      not\n      and\n      swap1\n      dup4\n      iszero\n      iszero\n      mul\n      or\n      swap1\n      sstore\n      pop\n      swap1\n      pop\n      pop\n        /* \"VotingContract.sol\":1662:1672  msg.sender */\n      caller\n        /* \"VotingContract.sol\":1653:1680  CastVote(msg.sender, _vote) */\n      0xffffffffffffffffffffffffffffffffffffffff\n      and\n      0xfa041dd7fda6fbb9d48aca1d7da5529c066fd2af30330fc5c4102316813cbddb\n        /* \"VotingContract.sol\":1674:1679  _vote */\n      dup7\n        /* \"VotingContract.sol\":1653:1680  CastVote(msg.sender, _vote) */\n      mload(0x40)\n      tag_82\n      swap2\n      swap1\n      tag_83\n      jump\t// in\n    tag_82:\n      mload(0x40)\n      dup1\n      swap2\n      sub\n      swap1\n      log2\n        /* \"VotingContract.sol\":1698:1701  val */\n      dup1\n        /* \"VotingContract.sol\":1691:1701  return val */\n      swap4\n      pop\n      pop\n        /* \"VotingContract.sol\":709:710  _ */\n      pop\n        /* \"VotingContract.sol\":1099:1709  function registerVoter(string memory _name, uint256 _age, bool _vote) public AgeCheck(msg.sender) ToRegister(msg.sender) returns (string memory)  {\r... */\n      pop\n      swap4\n      swap3\n      pop\n      pop\n      pop\n      jump\t// out\n        /* \"VotingContract.sol\":136:158  string public  message */\n    tag_18:\n      0x01\n      dup1\n      sload\n      tag_84\n      swap1\n      tag_85\n      jump\t// in\n    tag_84:\n      dup1\n      0x1f\n      add\n      0x20\n      dup1\n      swap2\n      div\n      mul\n      0x20\n      add\n      mload(0x40)\n      swap1\n      dup2\n      add\n      0x40\n      mstore\n      dup1\n      swap3\n      swap2\n      swap1\n      dup2\n      dup2\n      mstore\n      0x20\n      add\n      dup3\n      dup1\n      sload\n      tag_86\n      swap1\n      tag_85\n      jump\t// in\n    tag_86:\n      dup1\n      iszero\n      tag_87\n      jumpi\n      dup1\n      0x1f\n      lt\n      tag_88\n      jumpi\n      0x0100\n      dup1\n      dup4\n      sload\n      div\n      mul\n      dup4\n      mstore\n      swap2\n      0x20\n      add\n      swap2\n      jump(tag_87)\n    tag_88:\n      dup3\n      add\n      swap2\n      swap1\n      0x00\n      mstore\n      keccak256(0x00, 0x20)\n      swap1\n    tag_89:\n      dup2\n      sload\n      dup2\n      mstore\n      swap1\n      0x01\n      add\n      swap1\n      0x20\n      add\n      dup1\n      dup4\n      gt\n      tag_89\n      jumpi\n      dup3\n      swap1\n      sub\n      0x1f\n      and\n      dup3\n      add\n      swap2\n    tag_87:\n      pop\n      pop\n      pop\n      pop\n      pop\n      dup2\n      jump\t// out\n    tag_52:\n      dup3\n      dup1\n      sload\n      tag_90\n      swap1\n      tag_85\n      jump\t// in\n    tag_90:\n      swap1\n      0x00\n      mstore\n      keccak256(0x00, 0x20)\n      swap1\n      0x1f\n      add\n      0x20\n      swap1\n      div\n      dup2\n      add\n      swap3\n      dup3\n      tag_92\n      jumpi\n      0x00\n      dup6\n      sstore\n      jump(tag_91)\n    tag_92:\n      dup3\n      0x1f\n      lt\n      tag_93\n      jumpi\n      dup1\n      mload\n      not(0xff)\n      and\n      dup4\n      dup1\n      add\n      or\n      dup6\n      sstore\n      jump(tag_91)\n    tag_93:\n      dup3\n      dup1\n      add\n      0x01\n      add\n      dup6\n      sstore\n      dup3\n      iszero\n      tag_91\n      jumpi\n      swap2\n      dup3\n      add\n    tag_94:\n      dup3\n      dup2\n      gt\n      iszero\n      tag_95\n      jumpi\n      dup3\n      mload\n      dup3\n      sstore\n      swap2\n      0x20\n      add\n      swap2\n      swap1\n      0x01\n      add\n      swap1\n      jump(tag_94)\n    tag_95:\n    tag_91:\n      pop\n      swap1\n      pop\n      tag_96\n      swap2\n      swap1\n      tag_97\n      jump\t// in\n    tag_96:\n      pop\n      swap1\n      jump\t// out\n    tag_97:\n    tag_98:\n      dup1\n      dup3\n      gt\n      iszero\n      tag_99\n      jumpi\n      0x00\n      dup2\n      0x00\n      swap1\n      sstore\n      pop\n      0x01\n      add\n      jump(tag_98)\n    tag_99:\n      pop\n      swap1\n      jump\t// out\n        /* \"#utility.yul\":7:352   */\n    tag_101:\n      0x00\n        /* \"#utility.yul\":110:176   */\n      tag_103\n        /* \"#utility.yul\":126:175   */\n      tag_104\n        /* \"#utility.yul\":168:174   */\n      dup5\n        /* \"#utility.yul\":126:175   */\n      tag_105\n      jump\t// in\n    tag_104:\n        /* \"#utility.yul\":110:176   */\n      tag_106\n      jump\t// in\n    tag_103:\n        /* \"#utility.yul\":101:176   */\n      swap1\n      pop\n        /* \"#utility.yul\":199:205   */\n      dup3\n        /* \"#utility.yul\":192:197   */\n      dup2\n        /* \"#utility.yul\":185:206   */\n      mstore\n        /* \"#utility.yul\":237:241   */\n      0x20\n        /* \"#utility.yul\":230:235   */\n      dup2\n        /* \"#utility.yul\":226:242   */\n      add\n        /* \"#utility.yul\":275:278   */\n      dup5\n        /* \"#utility.yul\":266:272   */\n      dup5\n        /* \"#utility.yul\":261:264   */\n      dup5\n        /* \"#utility.yul\":257:273   */\n      add\n        /* \"#utility.yul\":254:279   */\n      gt\n        /* \"#utility.yul\":251:253   */\n      iszero\n      tag_107\n      jumpi\n        /* \"#utility.yul\":292:293   */\n      0x00\n        /* \"#utility.yul\":289:290   */\n      dup1\n        /* \"#utility.yul\":282:294   */\n      revert\n        /* \"#utility.yul\":251:253   */\n    tag_107:\n        /* \"#utility.yul\":305:346   */\n      tag_108\n        /* \"#utility.yul\":339:345   */\n      dup5\n        /* \"#utility.yul\":334:337   */\n      dup3\n        /* \"#utility.yul\":329:332   */\n      dup6\n        /* \"#utility.yul\":305:346   */\n      tag_109\n      jump\t// in\n    tag_108:\n        /* \"#utility.yul\":91:352   */\n      pop\n      swap4\n      swap3\n      pop\n      pop\n      pop\n      jump\t// out\n        /* \"#utility.yul\":358:491   */\n    tag_110:\n      0x00\n        /* \"#utility.yul\":439:445   */\n      dup2\n        /* \"#utility.yul\":426:446   */\n      calldataload\n        /* \"#utility.yul\":417:446   */\n      swap1\n      pop\n        /* \"#utility.yul\":455:485   */\n      tag_112\n        /* \"#utility.yul\":479:484   */\n      dup2\n        /* \"#utility.yul\":455:485   */\n      tag_113\n      jump\t// in\n    tag_112:\n        /* \"#utility.yul\":407:491   */\n      swap3\n      swap2\n      pop\n      pop\n      jump\t// out\n        /* \"#utility.yul\":511:784   */\n    tag_114:\n      0x00\n        /* \"#utility.yul\":616:619   */\n      dup3\n        /* \"#utility.yul\":609:613   */\n      0x1f\n        /* \"#utility.yul\":601:607   */\n      dup4\n        /* \"#utility.yul\":597:614   */\n      add\n        /* \"#utility.yul\":593:620   */\n      slt\n        /* \"#utility.yul\":583:585   */\n      tag_116\n      jumpi\n        /* \"#utility.yul\":634:635   */\n      0x00\n        /* \"#utility.yul\":631:632   */\n      dup1\n        /* \"#utility.yul\":624:636   */\n      revert\n        /* \"#utility.yul\":583:585   */\n    tag_116:\n        /* \"#utility.yul\":674:680   */\n      dup2\n        /* \"#utility.yul\":661:681   */\n      calldataload\n        /* \"#utility.yul\":699:778   */\n      tag_117\n        /* \"#utility.yul\":774:777   */\n      dup5\n        /* \"#utility.yul\":766:772   */\n      dup3\n        /* \"#utility.yul\":759:763   */\n      0x20\n        /* \"#utility.yul\":751:757   */\n      dup7\n        /* \"#utility.yul\":747:764   */\n      add\n        /* \"#utility.yul\":699:778   */\n      tag_101\n      jump\t// in\n    tag_117:\n        /* \"#utility.yul\":690:778   */\n      swap2\n      pop\n        /* \"#utility.yul\":573:784   */\n      pop\n      swap3\n      swap2\n      pop\n      pop\n      jump\t// out\n        /* \"#utility.yul\":790:929   */\n    tag_118:\n      0x00\n        /* \"#utility.yul\":874:880   */\n      dup2\n        /* \"#utility.yul\":861:881   */\n      calldataload\n        /* \"#utility.yul\":852:881   */\n      swap1\n      pop\n        /* \"#utility.yul\":890:923   */\n      tag_120\n        /* \"#utility.yul\":917:922   */\n      dup2\n        /* \"#utility.yul\":890:923   */\n      tag_121\n      jump\t// in\n    tag_120:\n        /* \"#utility.yul\":842:929   */\n      swap3\n      swap2\n      pop\n      pop\n      jump\t// out\n        /* \"#utility.yul\":935:1310   */\n    tag_8:\n      0x00\n        /* \"#utility.yul\":1053:1055   */\n      0x20\n        /* \"#utility.yul\":1041:1050   */\n      dup3\n        /* \"#utility.yul\":1032:1039   */\n      dup5\n        /* \"#utility.yul\":1028:1051   */\n      sub\n        /* \"#utility.yul\":1024:1056   */\n      slt\n        /* \"#utility.yul\":1021:1023   */\n      iszero\n      tag_123\n      jumpi\n        /* \"#utility.yul\":1069:1070   */\n      0x00\n        /* \"#utility.yul\":1066:1067   */\n      dup1\n        /* \"#utility.yul\":1059:1071   */\n      revert\n        /* \"#utility.yul\":1021:1023   */\n    tag_123:\n        /* \"#utility.yul\":1140:1141   */\n      0x00\n        /* \"#utility.yul\":1129:1138   */\n      dup3\n        /* \"#utility.yul\":1125:1142   */\n      add\n        /* \"#utility.yul\":1112:1143   */\n      calldataload\n        /* \"#utility.yul\":1170:1188   */\n      0xffffffffffffffff\n        /* \"#utility.yul\":1162:1168   */\n      dup2\n        /* \"#utility.yul\":1159:1189   */\n      gt\n        /* \"#utility.yul\":1156:1158   */\n      iszero\n      tag_124\n      jumpi\n        /* \"#utility.yul\":1202:1203   */\n      0x00\n        /* \"#utility.yul\":1199:1200   */\n      dup1\n        /* \"#utility.yul\":1192:1204   */\n      revert\n        /* \"#utility.yul\":1156:1158   */\n    tag_124:\n        /* \"#utility.yul\":1230:1293   */\n      tag_125\n        /* \"#utility.yul\":1285:1292   */\n      dup5\n        /* \"#utility.yul\":1276:1282   */\n      dup3\n        /* \"#utility.yul\":1265:1274   */\n      dup6\n        /* \"#utility.yul\":1261:1283   */\n      add\n        /* \"#utility.yul\":1230:1293   */\n      tag_114\n      jump\t// in\n    tag_125:\n        /* \"#utility.yul\":1220:1293   */\n      swap2\n      pop\n        /* \"#utility.yul\":1083:1303   */\n      pop\n        /* \"#utility.yul\":1011:1310   */\n      swap3\n      swap2\n      pop\n      pop\n      jump\t// out\n        /* \"#utility.yul\":1316:1975   */\n    tag_14:\n      0x00\n      dup1\n      0x00\n        /* \"#utility.yul\":1465:1467   */\n      0x60\n        /* \"#utility.yul\":1453:1462   */\n      dup5\n        /* \"#utility.yul\":1444:1451   */\n      dup7\n        /* \"#utility.yul\":1440:1463   */\n      sub\n        /* \"#utility.yul\":1436:1468   */\n      slt\n        /* \"#utility.yul\":1433:1435   */\n      iszero\n      tag_127\n      jumpi\n        /* \"#utility.yul\":1481:1482   */\n      0x00\n        /* \"#utility.yul\":1478:1479   */\n      dup1\n        /* \"#utility.yul\":1471:1483   */\n      revert\n        /* \"#utility.yul\":1433:1435   */\n    tag_127:\n        /* \"#utility.yul\":1552:1553   */\n      0x00\n        /* \"#utility.yul\":1541:1550   */\n      dup5\n        /* \"#utility.yul\":1537:1554   */\n      add\n        /* \"#utility.yul\":1524:1555   */\n      calldataload\n        /* \"#utility.yul\":1582:1600   */\n      0xffffffffffffffff\n        /* \"#utility.yul\":1574:1580   */\n      dup2\n        /* \"#utility.yul\":1571:1601   */\n      gt\n        /* \"#utility.yul\":1568:1570   */\n      iszero\n      tag_128\n      jumpi\n        /* \"#utility.yul\":1614:1615   */\n      0x00\n        /* \"#utility.yul\":1611:1612   */\n      dup1\n        /* \"#utility.yul\":1604:1616   */\n      revert\n        /* \"#utility.yul\":1568:1570   */\n    tag_128:\n        /* \"#utility.yul\":1642:1705   */\n      tag_129\n        /* \"#utility.yul\":1697:1704   */\n      dup7\n        /* \"#utility.yul\":1688:1694   */\n      dup3\n        /* \"#utility.yul\":1677:1686   */\n      dup8\n        /* \"#utility.yul\":1673:1695   */\n      add\n        /* \"#utility.yul\":1642:1705   */\n      tag_114\n      jump\t// in\n    tag_129:\n        /* \"#utility.yul\":1632:1705   */\n      swap4\n      pop\n        /* \"#utility.yul\":1495:1715   */\n      pop\n        /* \"#utility.yul\":1754:1756   */\n      0x20\n        /* \"#utility.yul\":1780:1833   */\n      tag_130\n        /* \"#utility.yul\":1825:1832   */\n      dup7\n        /* \"#utility.yul\":1816:1822   */\n      dup3\n        /* \"#utility.yul\":1805:1814   */\n      dup8\n        /* \"#utility.yul\":1801:1823   */\n      add\n        /* \"#utility.yul\":1780:1833   */\n      tag_118\n      jump\t// in\n    tag_130:\n        /* \"#utility.yul\":1770:1833   */\n      swap3\n      pop\n        /* \"#utility.yul\":1725:1843   */\n      pop\n        /* \"#utility.yul\":1882:1884   */\n      0x40\n        /* \"#utility.yul\":1908:1958   */\n      tag_131\n        /* \"#utility.yul\":1950:1957   */\n      dup7\n        /* \"#utility.yul\":1941:1947   */\n      dup3\n        /* \"#utility.yul\":1930:1939   */\n      dup8\n        /* \"#utility.yul\":1926:1948   */\n      add\n        /* \"#utility.yul\":1908:1958   */\n      tag_110\n      jump\t// in\n    tag_131:\n        /* \"#utility.yul\":1898:1958   */\n      swap2\n      pop\n        /* \"#utility.yul\":1853:1968   */\n      pop\n        /* \"#utility.yul\":1423:1975   */\n      swap3\n      pop\n      swap3\n      pop\n      swap3\n      jump\t// out\n        /* \"#utility.yul\":1981:2090   */\n    tag_132:\n        /* \"#utility.yul\":2062:2083   */\n      tag_134\n        /* \"#utility.yul\":2077:2082   */\n      dup2\n        /* \"#utility.yul\":2062:2083   */\n      tag_135\n      jump\t// in\n    tag_134:\n        /* \"#utility.yul\":2057:2060   */\n      dup3\n        /* \"#utility.yul\":2050:2084   */\n      mstore\n        /* \"#utility.yul\":2040:2090   */\n      pop\n      pop\n      jump\t// out\n        /* \"#utility.yul\":2096:2460   */\n    tag_136:\n      0x00\n        /* \"#utility.yul\":2212:2251   */\n      tag_138\n        /* \"#utility.yul\":2245:2250   */\n      dup3\n        /* \"#utility.yul\":2212:2251   */\n      tag_139\n      jump\t// in\n    tag_138:\n        /* \"#utility.yul\":2267:2338   */\n      tag_140\n        /* \"#utility.yul\":2331:2337   */\n      dup2\n        /* \"#utility.yul\":2326:2329   */\n      dup6\n        /* \"#utility.yul\":2267:2338   */\n      tag_141\n      jump\t// in\n    tag_140:\n        /* \"#utility.yul\":2260:2338   */\n      swap4\n      pop\n        /* \"#utility.yul\":2347:2399   */\n      tag_142\n        /* \"#utility.yul\":2392:2398   */\n      dup2\n        /* \"#utility.yul\":2387:2390   */\n      dup6\n        /* \"#utility.yul\":2380:2384   */\n      0x20\n        /* \"#utility.yul\":2373:2378   */\n      dup7\n        /* \"#utility.yul\":2369:2385   */\n      add\n        /* \"#utility.yul\":2347:2399   */\n      tag_143\n      jump\t// in\n    tag_142:\n        /* \"#utility.yul\":2424:2453   */\n      tag_144\n        /* \"#utility.yul\":2446:2452   */\n      dup2\n        /* \"#utility.yul\":2424:2453   */\n      tag_145\n      jump\t// in\n    tag_144:\n        /* \"#utility.yul\":2419:2422   */\n      dup5\n        /* \"#utility.yul\":2415:2454   */\n      add\n        /* \"#utility.yul\":2408:2454   */\n      swap2\n      pop\n        /* \"#utility.yul\":2188:2460   */\n      pop\n      swap3\n      swap2\n      pop\n      pop\n      jump\t// out\n        /* \"#utility.yul\":2466:2843   */\n    tag_146:\n      0x00\n        /* \"#utility.yul\":2600:2639   */\n      tag_148\n        /* \"#utility.yul\":2633:2638   */\n      dup3\n        /* \"#utility.yul\":2600:2639   */\n      tag_139\n      jump\t// in\n    tag_148:\n        /* \"#utility.yul\":2655:2744   */\n      tag_149\n        /* \"#utility.yul\":2737:2743   */\n      dup2\n        /* \"#utility.yul\":2732:2735   */\n      dup6\n        /* \"#utility.yul\":2655:2744   */\n      tag_150\n      jump\t// in\n    tag_149:\n        /* \"#utility.yul\":2648:2744   */\n      swap4\n      pop\n        /* \"#utility.yul\":2753:2805   */\n      tag_151\n        /* \"#utility.yul\":2798:2804   */\n      dup2\n        /* \"#utility.yul\":2793:2796   */\n      dup6\n        /* \"#utility.yul\":2786:2790   */\n      0x20\n        /* \"#utility.yul\":2779:2784   */\n      dup7\n        /* \"#utility.yul\":2775:2791   */\n      add\n        /* \"#utility.yul\":2753:2805   */\n      tag_143\n      jump\t// in\n    tag_151:\n        /* \"#utility.yul\":2830:2836   */\n      dup1\n        /* \"#utility.yul\":2825:2828   */\n      dup5\n        /* \"#utility.yul\":2821:2837   */\n      add\n        /* \"#utility.yul\":2814:2837   */\n      swap2\n      pop\n        /* \"#utility.yul\":2576:2843   */\n      pop\n      swap3\n      swap2\n      pop\n      pop\n      jump\t// out\n        /* \"#utility.yul\":2873:3675   */\n    tag_152:\n      0x00\n        /* \"#utility.yul\":2995:3000   */\n      dup2\n        /* \"#utility.yul\":2989:3001   */\n      sload\n        /* \"#utility.yul\":3024:3060   */\n      tag_154\n        /* \"#utility.yul\":3050:3059   */\n      dup2\n        /* \"#utility.yul\":3024:3060   */\n      tag_85\n      jump\t// in\n    tag_154:\n        /* \"#utility.yul\":3076:3147   */\n      tag_155\n        /* \"#utility.yul\":3140:3146   */\n      dup2\n        /* \"#utility.yul\":3135:3138   */\n      dup7\n        /* \"#utility.yul\":3076:3147   */\n      tag_141\n      jump\t// in\n    tag_155:\n        /* \"#utility.yul\":3069:3147   */\n      swap5\n      pop\n        /* \"#utility.yul\":3178:3179   */\n      0x01\n        /* \"#utility.yul\":3167:3176   */\n      dup3\n        /* \"#utility.yul\":3163:3180   */\n      and\n        /* \"#utility.yul\":3194:3195   */\n      0x00\n        /* \"#utility.yul\":3189:3324   */\n      dup2\n      eq\n      tag_157\n      jumpi\n        /* \"#utility.yul\":3338:3339   */\n      0x01\n        /* \"#utility.yul\":3333:3669   */\n      dup2\n      eq\n      tag_158\n      jumpi\n        /* \"#utility.yul\":3156:3669   */\n      jump(tag_156)\n        /* \"#utility.yul\":3189:3324   */\n    tag_157:\n        /* \"#utility.yul\":3273:3277   */\n      0xff\n        /* \"#utility.yul\":3269:3278   */\n      not\n        /* \"#utility.yul\":3258:3267   */\n      dup4\n        /* \"#utility.yul\":3254:3279   */\n      and\n        /* \"#utility.yul\":3249:3252   */\n      dup7\n        /* \"#utility.yul\":3242:3280   */\n      mstore\n        /* \"#utility.yul\":3309:3313   */\n      0x20\n        /* \"#utility.yul\":3304:3307   */\n      dup7\n        /* \"#utility.yul\":3300:3314   */\n      add\n        /* \"#utility.yul\":3293:3314   */\n      swap4\n      pop\n        /* \"#utility.yul\":3189:3324   */\n      jump(tag_156)\n        /* \"#utility.yul\":3333:3669   */\n    tag_158:\n        /* \"#utility.yul\":3400:3438   */\n      tag_159\n        /* \"#utility.yul\":3432:3437   */\n      dup6\n        /* \"#utility.yul\":3400:3438   */\n      tag_160\n      jump\t// in\n    tag_159:\n        /* \"#utility.yul\":3460:3461   */\n      0x00\n        /* \"#utility.yul\":3474:3628   */\n    tag_161:\n        /* \"#utility.yul\":3488:3494   */\n      dup4\n        /* \"#utility.yul\":3485:3486   */\n      dup2\n        /* \"#utility.yul\":3482:3495   */\n      lt\n        /* \"#utility.yul\":3474:3628   */\n      iszero\n      tag_163\n      jumpi\n        /* \"#utility.yul\":3562:3569   */\n      dup2\n        /* \"#utility.yul\":3556:3570   */\n      sload\n        /* \"#utility.yul\":3552:3553   */\n      dup2\n        /* \"#utility.yul\":3547:3550   */\n      dup10\n        /* \"#utility.yul\":3543:3554   */\n      add\n        /* \"#utility.yul\":3536:3571   */\n      mstore\n        /* \"#utility.yul\":3612:3613   */\n      0x01\n        /* \"#utility.yul\":3603:3610   */\n      dup3\n        /* \"#utility.yul\":3599:3614   */\n      add\n        /* \"#utility.yul\":3588:3614   */\n      swap2\n      pop\n        /* \"#utility.yul\":3510:3514   */\n      0x20\n        /* \"#utility.yul\":3507:3508   */\n      dup2\n        /* \"#utility.yul\":3503:3515   */\n      add\n        /* \"#utility.yul\":3498:3515   */\n      swap1\n      pop\n        /* \"#utility.yul\":3474:3628   */\n      jump(tag_161)\n    tag_163:\n        /* \"#utility.yul\":3657:3658   */\n      dup1\n        /* \"#utility.yul\":3652:3655   */\n      dup9\n        /* \"#utility.yul\":3648:3659   */\n      add\n        /* \"#utility.yul\":3641:3659   */\n      swap6\n      pop\n        /* \"#utility.yul\":3340:3669   */\n      pop\n      pop\n        /* \"#utility.yul\":3156:3669   */\n    tag_156:\n      pop\n        /* \"#utility.yul\":2962:3675   */\n      pop\n      pop\n      swap3\n      swap2\n      pop\n      pop\n      jump\t// out\n        /* \"#utility.yul\":3705:4550   */\n    tag_164:\n      0x00\n        /* \"#utility.yul\":3845:3850   */\n      dup2\n        /* \"#utility.yul\":3839:3851   */\n      sload\n        /* \"#utility.yul\":3874:3910   */\n      tag_166\n        /* \"#utility.yul\":3900:3909   */\n      dup2\n        /* \"#utility.yul\":3874:3910   */\n      tag_85\n      jump\t// in\n    tag_166:\n        /* \"#utility.yul\":3926:4015   */\n      tag_167\n        /* \"#utility.yul\":4008:4014   */\n      dup2\n        /* \"#utility.yul\":4003:4006   */\n      dup7\n        /* \"#utility.yul\":3926:4015   */\n      tag_150\n      jump\t// in\n    tag_167:\n        /* \"#utility.yul\":3919:4015   */\n      swap5\n      pop\n        /* \"#utility.yul\":4046:4047   */\n      0x01\n        /* \"#utility.yul\":4035:4044   */\n      dup3\n        /* \"#utility.yul\":4031:4048   */\n      and\n        /* \"#utility.yul\":4062:4063   */\n      0x00\n        /* \"#utility.yul\":4057:4194   */\n      dup2\n      eq\n      tag_169\n      jumpi\n        /* \"#utility.yul\":4208:4209   */\n      0x01\n        /* \"#utility.yul\":4203:4544   */\n      dup2\n      eq\n      tag_170\n      jumpi\n        /* \"#utility.yul\":4024:4544   */\n      jump(tag_168)\n        /* \"#utility.yul\":4057:4194   */\n    tag_169:\n        /* \"#utility.yul\":4141:4145   */\n      0xff\n        /* \"#utility.yul\":4137:4146   */\n      not\n        /* \"#utility.yul\":4126:4135   */\n      dup4\n        /* \"#utility.yul\":4122:4147   */\n      and\n        /* \"#utility.yul\":4117:4120   */\n      dup7\n        /* \"#utility.yul\":4110:4148   */\n      mstore\n        /* \"#utility.yul\":4177:4183   */\n      dup2\n        /* \"#utility.yul\":4172:4175   */\n      dup7\n        /* \"#utility.yul\":4168:4184   */\n      add\n        /* \"#utility.yul\":4161:4184   */\n      swap4\n      pop\n        /* \"#utility.yul\":4057:4194   */\n      jump(tag_168)\n        /* \"#utility.yul\":4203:4544   */\n    tag_170:\n        /* \"#utility.yul\":4270:4308   */\n      tag_171\n        /* \"#utility.yul\":4302:4307   */\n      dup6\n        /* \"#utility.yul\":4270:4308   */\n      tag_160\n      jump\t// in\n    tag_171:\n        /* \"#utility.yul\":4330:4331   */\n      0x00\n        /* \"#utility.yul\":4344:4498   */\n    tag_172:\n        /* \"#utility.yul\":4358:4364   */\n      dup4\n        /* \"#utility.yul\":4355:4356   */\n      dup2\n        /* \"#utility.yul\":4352:4365   */\n      lt\n        /* \"#utility.yul\":4344:4498   */\n      iszero\n      tag_174\n      jumpi\n        /* \"#utility.yul\":4432:4439   */\n      dup2\n        /* \"#utility.yul\":4426:4440   */\n      sload\n        /* \"#utility.yul\":4422:4423   */\n      dup2\n        /* \"#utility.yul\":4417:4420   */\n      dup10\n        /* \"#utility.yul\":4413:4424   */\n      add\n        /* \"#utility.yul\":4406:4441   */\n      mstore\n        /* \"#utility.yul\":4482:4483   */\n      0x01\n        /* \"#utility.yul\":4473:4480   */\n      dup3\n        /* \"#utility.yul\":4469:4484   */\n      add\n        /* \"#utility.yul\":4458:4484   */\n      swap2\n      pop\n        /* \"#utility.yul\":4380:4384   */\n      0x20\n        /* \"#utility.yul\":4377:4378   */\n      dup2\n        /* \"#utility.yul\":4373:4385   */\n      add\n        /* \"#utility.yul\":4368:4385   */\n      swap1\n      pop\n        /* \"#utility.yul\":4344:4498   */\n      jump(tag_172)\n    tag_174:\n        /* \"#utility.yul\":4527:4533   */\n      dup4\n        /* \"#utility.yul\":4522:4525   */\n      dup9\n        /* \"#utility.yul\":4518:4534   */\n      add\n        /* \"#utility.yul\":4511:4534   */\n      swap6\n      pop\n        /* \"#utility.yul\":4210:4544   */\n      pop\n      pop\n        /* \"#utility.yul\":4024:4544   */\n    tag_168:\n      pop\n        /* \"#utility.yul\":3812:4550   */\n      pop\n      pop\n      swap3\n      swap2\n      pop\n      pop\n      jump\t// out\n        /* \"#utility.yul\":4556:4958   */\n    tag_175:\n      0x00\n        /* \"#utility.yul\":4737:4822   */\n      tag_177\n        /* \"#utility.yul\":4819:4821   */\n      0x19\n        /* \"#utility.yul\":4814:4817   */\n      dup4\n        /* \"#utility.yul\":4737:4822   */\n      tag_150\n      jump\t// in\n    tag_177:\n        /* \"#utility.yul\":4730:4822   */\n      swap2\n      pop\n        /* \"#utility.yul\":4831:4924   */\n      tag_178\n        /* \"#utility.yul\":4920:4923   */\n      dup3\n        /* \"#utility.yul\":4831:4924   */\n      tag_179\n      jump\t// in\n    tag_178:\n        /* \"#utility.yul\":4949:4951   */\n      0x19\n        /* \"#utility.yul\":4944:4947   */\n      dup3\n        /* \"#utility.yul\":4940:4952   */\n      add\n        /* \"#utility.yul\":4933:4952   */\n      swap1\n      pop\n        /* \"#utility.yul\":4720:4958   */\n      swap2\n      swap1\n      pop\n      jump\t// out\n        /* \"#utility.yul\":4964:5364   */\n    tag_180:\n      0x00\n        /* \"#utility.yul\":5145:5229   */\n      tag_182\n        /* \"#utility.yul\":5227:5228   */\n      0x04\n        /* \"#utility.yul\":5222:5225   */\n      dup4\n        /* \"#utility.yul\":5145:5229   */\n      tag_150\n      jump\t// in\n    tag_182:\n        /* \"#utility.yul\":5138:5229   */\n      swap2\n      pop\n        /* \"#utility.yul\":5238:5331   */\n      tag_183\n        /* \"#utility.yul\":5327:5330   */\n      dup3\n        /* \"#utility.yul\":5238:5331   */\n      tag_184\n      jump\t// in\n    tag_183:\n        /* \"#utility.yul\":5356:5357   */\n      0x04\n        /* \"#utility.yul\":5351:5354   */\n      dup3\n        /* \"#utility.yul\":5347:5358   */\n      add\n        /* \"#utility.yul\":5340:5358   */\n      swap1\n      pop\n        /* \"#utility.yul\":5128:5364   */\n      swap2\n      swap1\n      pop\n      jump\t// out\n        /* \"#utility.yul\":5370:5770   */\n    tag_185:\n      0x00\n        /* \"#utility.yul\":5551:5635   */\n      tag_187\n        /* \"#utility.yul\":5633:5634   */\n      0x02\n        /* \"#utility.yul\":5628:5631   */\n      dup4\n        /* \"#utility.yul\":5551:5635   */\n      tag_150\n      jump\t// in\n    tag_187:\n        /* \"#utility.yul\":5544:5635   */\n      swap2\n      pop\n        /* \"#utility.yul\":5644:5737   */\n      tag_188\n        /* \"#utility.yul\":5733:5736   */\n      dup3\n        /* \"#utility.yul\":5644:5737   */\n      tag_189\n      jump\t// in\n    tag_188:\n        /* \"#utility.yul\":5762:5763   */\n      0x02\n        /* \"#utility.yul\":5757:5760   */\n      dup3\n        /* \"#utility.yul\":5753:5764   */\n      add\n        /* \"#utility.yul\":5746:5764   */\n      swap1\n      pop\n        /* \"#utility.yul\":5534:5770   */\n      swap2\n      swap1\n      pop\n      jump\t// out\n        /* \"#utility.yul\":5776:6176   */\n    tag_190:\n      0x00\n        /* \"#utility.yul\":5957:6041   */\n      tag_192\n        /* \"#utility.yul\":6039:6040   */\n      0x03\n        /* \"#utility.yul\":6034:6037   */\n      dup4\n        /* \"#utility.yul\":5957:6041   */\n      tag_150\n      jump\t// in\n    tag_192:\n        /* \"#utility.yul\":5950:6041   */\n      swap2\n      pop\n        /* \"#utility.yul\":6050:6143   */\n      tag_193\n        /* \"#utility.yul\":6139:6142   */\n      dup3\n        /* \"#utility.yul\":6050:6143   */\n      tag_194\n      jump\t// in\n    tag_193:\n        /* \"#utility.yul\":6168:6169   */\n      0x03\n        /* \"#utility.yul\":6163:6166   */\n      dup3\n        /* \"#utility.yul\":6159:6170   */\n      add\n        /* \"#utility.yul\":6152:6170   */\n      swap1\n      pop\n        /* \"#utility.yul\":5940:6176   */\n      swap2\n      swap1\n      pop\n      jump\t// out\n        /* \"#utility.yul\":6182:6548   */\n    tag_195:\n      0x00\n        /* \"#utility.yul\":6345:6412   */\n      tag_197\n        /* \"#utility.yul\":6409:6411   */\n      0x2c\n        /* \"#utility.yul\":6404:6407   */\n      dup4\n        /* \"#utility.yul\":6345:6412   */\n      tag_141\n      jump\t// in\n    tag_197:\n        /* \"#utility.yul\":6338:6412   */\n      swap2\n      pop\n        /* \"#utility.yul\":6421:6514   */\n      tag_198\n        /* \"#utility.yul\":6510:6513   */\n      dup3\n        /* \"#utility.yul\":6421:6514   */\n      tag_199\n      jump\t// in\n    tag_198:\n        /* \"#utility.yul\":6539:6541   */\n      0x40\n        /* \"#utility.yul\":6534:6537   */\n      dup3\n        /* \"#utility.yul\":6530:6542   */\n      add\n        /* \"#utility.yul\":6523:6542   */\n      swap1\n      pop\n        /* \"#utility.yul\":6328:6548   */\n      swap2\n      swap1\n      pop\n      jump\t// out\n        /* \"#utility.yul\":6554:6920   */\n    tag_200:\n      0x00\n        /* \"#utility.yul\":6717:6784   */\n      tag_202\n        /* \"#utility.yul\":6781:6783   */\n      0x18\n        /* \"#utility.yul\":6776:6779   */\n      dup4\n        /* \"#utility.yul\":6717:6784   */\n      tag_141\n      jump\t// in\n    tag_202:\n        /* \"#utility.yul\":6710:6784   */\n      swap2\n      pop\n        /* \"#utility.yul\":6793:6886   */\n      tag_203\n        /* \"#utility.yul\":6882:6885   */\n      dup3\n        /* \"#utility.yul\":6793:6886   */\n      tag_204\n      jump\t// in\n    tag_203:\n        /* \"#utility.yul\":6911:6913   */\n      0x20\n        /* \"#utility.yul\":6906:6909   */\n      dup3\n        /* \"#utility.yul\":6902:6914   */\n      add\n        /* \"#utility.yul\":6895:6914   */\n      swap1\n      pop\n        /* \"#utility.yul\":6700:6920   */\n      swap2\n      swap1\n      pop\n      jump\t// out\n        /* \"#utility.yul\":6926:7201   */\n    tag_25:\n      0x00\n        /* \"#utility.yul\":7080:7175   */\n      tag_206\n        /* \"#utility.yul\":7171:7174   */\n      dup3\n        /* \"#utility.yul\":7162:7168   */\n      dup5\n        /* \"#utility.yul\":7080:7175   */\n      tag_146\n      jump\t// in\n    tag_206:\n        /* \"#utility.yul\":7073:7175   */\n      swap2\n      pop\n        /* \"#utility.yul\":7192:7195   */\n      dup2\n        /* \"#utility.yul\":7185:7195   */\n      swap1\n      pop\n        /* \"#utility.yul\":7062:7201   */\n      swap3\n      swap2\n      pop\n      pop\n      jump\t// out\n        /* \"#utility.yul\":7207:7636   */\n    tag_63:\n      0x00\n        /* \"#utility.yul\":7406:7501   */\n      tag_208\n        /* \"#utility.yul\":7497:7500   */\n      dup3\n        /* \"#utility.yul\":7488:7494   */\n      dup6\n        /* \"#utility.yul\":7406:7501   */\n      tag_146\n      jump\t// in\n    tag_208:\n        /* \"#utility.yul\":7399:7501   */\n      swap2\n      pop\n        /* \"#utility.yul\":7518:7610   */\n      tag_209\n        /* \"#utility.yul\":7606:7609   */\n      dup3\n        /* \"#utility.yul\":7597:7603   */\n      dup5\n        /* \"#utility.yul\":7518:7610   */\n      tag_164\n      jump\t// in\n    tag_209:\n        /* \"#utility.yul\":7511:7610   */\n      swap2\n      pop\n        /* \"#utility.yul\":7627:7630   */\n      dup2\n        /* \"#utility.yul\":7620:7630   */\n      swap1\n      pop\n        /* \"#utility.yul\":7388:7636   */\n      swap4\n      swap3\n      pop\n      pop\n      pop\n      jump\t// out\n        /* \"#utility.yul\":7642:8183   */\n    tag_50:\n      0x00\n        /* \"#utility.yul\":7897:7992   */\n      tag_211\n        /* \"#utility.yul\":7988:7991   */\n      dup3\n        /* \"#utility.yul\":7979:7985   */\n      dup5\n        /* \"#utility.yul\":7897:7992   */\n      tag_146\n      jump\t// in\n    tag_211:\n        /* \"#utility.yul\":7890:7992   */\n      swap2\n      pop\n        /* \"#utility.yul\":8009:8157   */\n      tag_212\n        /* \"#utility.yul\":8153:8156   */\n      dup3\n        /* \"#utility.yul\":8009:8157   */\n      tag_175\n      jump\t// in\n    tag_212:\n        /* \"#utility.yul\":8002:8157   */\n      swap2\n      pop\n        /* \"#utility.yul\":8174:8177   */\n      dup2\n        /* \"#utility.yul\":8167:8177   */\n      swap1\n      pop\n        /* \"#utility.yul\":7879:8183   */\n      swap3\n      swap2\n      pop\n      pop\n      jump\t// out\n        /* \"#utility.yul\":8189:8730   */\n    tag_56:\n      0x00\n        /* \"#utility.yul\":8444:8539   */\n      tag_214\n        /* \"#utility.yul\":8535:8538   */\n      dup3\n        /* \"#utility.yul\":8526:8532   */\n      dup5\n        /* \"#utility.yul\":8444:8539   */\n      tag_146\n      jump\t// in\n    tag_214:\n        /* \"#utility.yul\":8437:8539   */\n      swap2\n      pop\n        /* \"#utility.yul\":8556:8704   */\n      tag_215\n        /* \"#utility.yul\":8700:8703   */\n      dup3\n        /* \"#utility.yul\":8556:8704   */\n      tag_180\n      jump\t// in\n    tag_215:\n        /* \"#utility.yul\":8549:8704   */\n      swap2\n      pop\n        /* \"#utility.yul\":8721:8724   */\n      dup2\n        /* \"#utility.yul\":8714:8724   */\n      swap1\n      pop\n        /* \"#utility.yul\":8426:8730   */\n      swap3\n      swap2\n      pop\n      pop\n      jump\t// out\n        /* \"#utility.yul\":8736:9005   */\n    tag_32:\n      0x00\n        /* \"#utility.yul\":8887:8979   */\n      tag_217\n        /* \"#utility.yul\":8975:8978   */\n      dup3\n        /* \"#utility.yul\":8966:8972   */\n      dup5\n        /* \"#utility.yul\":8887:8979   */\n      tag_164\n      jump\t// in\n    tag_217:\n        /* \"#utility.yul\":8880:8979   */\n      swap2\n      pop\n        /* \"#utility.yul\":8996:8999   */\n      dup2\n        /* \"#utility.yul\":8989:8999   */\n      swap1\n      pop\n        /* \"#utility.yul\":8869:9005   */\n      swap3\n      swap2\n      pop\n      pop\n      jump\t// out\n        /* \"#utility.yul\":9011:9392   */\n    tag_37:\n      0x00\n        /* \"#utility.yul\":9218:9366   */\n      tag_219\n        /* \"#utility.yul\":9362:9365   */\n      dup3\n        /* \"#utility.yul\":9218:9366   */\n      tag_185\n      jump\t// in\n    tag_219:\n        /* \"#utility.yul\":9211:9366   */\n      swap2\n      pop\n        /* \"#utility.yul\":9383:9386   */\n      dup2\n        /* \"#utility.yul\":9376:9386   */\n      swap1\n      pop\n        /* \"#utility.yul\":9200:9392   */\n      swap2\n      swap1\n      pop\n      jump\t// out\n        /* \"#utility.yul\":9398:9779   */\n    tag_27:\n      0x00\n        /* \"#utility.yul\":9605:9753   */\n      tag_221\n        /* \"#utility.yul\":9749:9752   */\n      dup3\n        /* \"#utility.yul\":9605:9753   */\n      tag_190\n      jump\t// in\n    tag_221:\n        /* \"#utility.yul\":9598:9753   */\n      swap2\n      pop\n        /* \"#utility.yul\":9770:9773   */\n      dup2\n        /* \"#utility.yul\":9763:9773   */\n      swap1\n      pop\n        /* \"#utility.yul\":9587:9779   */\n      swap2\n      swap1\n      pop\n      jump\t// out\n        /* \"#utility.yul\":9785:9995   */\n    tag_83:\n      0x00\n        /* \"#utility.yul\":9910:9912   */\n      0x20\n        /* \"#utility.yul\":9899:9908   */\n      dup3\n        /* \"#utility.yul\":9895:9913   */\n      add\n        /* \"#utility.yul\":9887:9913   */\n      swap1\n      pop\n        /* \"#utility.yul\":9923:9988   */\n      tag_223\n        /* \"#utility.yul\":9985:9986   */\n      0x00\n        /* \"#utility.yul\":9974:9983   */\n      dup4\n        /* \"#utility.yul\":9970:9987   */\n      add\n        /* \"#utility.yul\":9961:9967   */\n      dup5\n        /* \"#utility.yul\":9923:9988   */\n      tag_132\n      jump\t// in\n    tag_223:\n        /* \"#utility.yul\":9877:9995   */\n      swap3\n      swap2\n      pop\n      pop\n      jump\t// out\n        /* \"#utility.yul\":10001:10314   */\n    tag_11:\n      0x00\n        /* \"#utility.yul\":10152:10154   */\n      0x20\n        /* \"#utility.yul\":10141:10150   */\n      dup3\n        /* \"#utility.yul\":10137:10155   */\n      add\n        /* \"#utility.yul\":10129:10155   */\n      swap1\n      pop\n        /* \"#utility.yul\":10201:10210   */\n      dup2\n        /* \"#utility.yul\":10195:10199   */\n      dup2\n        /* \"#utility.yul\":10191:10211   */\n      sub\n        /* \"#utility.yul\":10187:10188   */\n      0x00\n        /* \"#utility.yul\":10176:10185   */\n      dup4\n        /* \"#utility.yul\":10172:10189   */\n      add\n        /* \"#utility.yul\":10165:10212   */\n      mstore\n        /* \"#utility.yul\":10229:10307   */\n      tag_225\n        /* \"#utility.yul\":10302:10306   */\n      dup2\n        /* \"#utility.yul\":10293:10299   */\n      dup5\n        /* \"#utility.yul\":10229:10307   */\n      tag_136\n      jump\t// in\n    tag_225:\n        /* \"#utility.yul\":10221:10307   */\n      swap1\n      pop\n        /* \"#utility.yul\":10119:10314   */\n      swap3\n      swap2\n      pop\n      pop\n      jump\t// out\n        /* \"#utility.yul\":10320:10627   */\n    tag_47:\n      0x00\n        /* \"#utility.yul\":10468:10470   */\n      0x20\n        /* \"#utility.yul\":10457:10466   */\n      dup3\n        /* \"#utility.yul\":10453:10471   */\n      add\n        /* \"#utility.yul\":10445:10471   */\n      swap1\n      pop\n        /* \"#utility.yul\":10517:10526   */\n      dup2\n        /* \"#utility.yul\":10511:10515   */\n      dup2\n        /* \"#utility.yul\":10507:10527   */\n      sub\n        /* \"#utility.yul\":10503:10504   */\n      0x00\n        /* \"#utility.yul\":10492:10501   */\n      dup4\n        /* \"#utility.yul\":10488:10505   */\n      add\n        /* \"#utility.yul\":10481:10528   */\n      mstore\n        /* \"#utility.yul\":10545:10620   */\n      tag_227\n        /* \"#utility.yul\":10615:10619   */\n      dup2\n        /* \"#utility.yul\":10606:10612   */\n      dup5\n        /* \"#utility.yul\":10545:10620   */\n      tag_152\n      jump\t// in\n    tag_227:\n        /* \"#utility.yul\":10537:10620   */\n      swap1\n      pop\n        /* \"#utility.yul\":10435:10627   */\n      swap3\n      swap2\n      pop\n      pop\n      jump\t// out\n        /* \"#utility.yul\":10633:11052   */\n    tag_67:\n      0x00\n        /* \"#utility.yul\":10837:10839   */\n      0x20\n        /* \"#utility.yul\":10826:10835   */\n      dup3\n        /* \"#utility.yul\":10822:10840   */\n      add\n        /* \"#utility.yul\":10814:10840   */\n      swap1\n      pop\n        /* \"#utility.yul\":10886:10895   */\n      dup2\n        /* \"#utility.yul\":10880:10884   */\n      dup2\n        /* \"#utility.yul\":10876:10896   */\n      sub\n        /* \"#utility.yul\":10872:10873   */\n      0x00\n        /* \"#utility.yul\":10861:10870   */\n      dup4\n        /* \"#utility.yul\":10857:10874   */\n      add\n        /* \"#utility.yul\":10850:10897   */\n      mstore\n        /* \"#utility.yul\":10914:11045   */\n      tag_229\n        /* \"#utility.yul\":11040:11044   */\n      dup2\n        /* \"#utility.yul\":10914:11045   */\n      tag_195\n      jump\t// in\n    tag_229:\n        /* \"#utility.yul\":10906:11045   */\n      swap1\n      pop\n        /* \"#utility.yul\":10804:11052   */\n      swap2\n      swap1\n      pop\n      jump\t// out\n        /* \"#utility.yul\":11058:11477   */\n    tag_71:\n      0x00\n        /* \"#utility.yul\":11262:11264   */\n      0x20\n        /* \"#utility.yul\":11251:11260   */\n      dup3\n        /* \"#utility.yul\":11247:11265   */\n      add\n        /* \"#utility.yul\":11239:11265   */\n      swap1\n      pop\n        /* \"#utility.yul\":11311:11320   */\n      dup2\n        /* \"#utility.yul\":11305:11309   */\n      dup2\n        /* \"#utility.yul\":11301:11321   */\n      sub\n        /* \"#utility.yul\":11297:11298   */\n      0x00\n        /* \"#utility.yul\":11286:11295   */\n      dup4\n        /* \"#utility.yul\":11282:11299   */\n      add\n        /* \"#utility.yul\":11275:11322   */\n      mstore\n        /* \"#utility.yul\":11339:11470   */\n      tag_231\n        /* \"#utility.yul\":11465:11469   */\n      dup2\n        /* \"#utility.yul\":11339:11470   */\n      tag_200\n      jump\t// in\n    tag_231:\n        /* \"#utility.yul\":11331:11470   */\n      swap1\n      pop\n        /* \"#utility.yul\":11229:11477   */\n      swap2\n      swap1\n      pop\n      jump\t// out\n        /* \"#utility.yul\":11483:11612   */\n    tag_106:\n      0x00\n        /* \"#utility.yul\":11544:11564   */\n      tag_233\n      tag_234\n      jump\t// in\n    tag_233:\n        /* \"#utility.yul\":11534:11564   */\n      swap1\n      pop\n        /* \"#utility.yul\":11573:11606   */\n      tag_235\n        /* \"#utility.yul\":11601:11605   */\n      dup3\n        /* \"#utility.yul\":11593:11599   */\n      dup3\n        /* \"#utility.yul\":11573:11606   */\n      tag_236\n      jump\t// in\n    tag_235:\n        /* \"#utility.yul\":11524:11612   */\n      swap2\n      swap1\n      pop\n      jump\t// out\n        /* \"#utility.yul\":11618:11693   */\n    tag_234:\n      0x00\n        /* \"#utility.yul\":11684:11686   */\n      0x40\n        /* \"#utility.yul\":11678:11687   */\n      mload\n        /* \"#utility.yul\":11668:11687   */\n      swap1\n      pop\n        /* \"#utility.yul\":11658:11693   */\n      swap1\n      jump\t// out\n        /* \"#utility.yul\":11699:12007   */\n    tag_105:\n      0x00\n        /* \"#utility.yul\":11851:11869   */\n      0xffffffffffffffff\n        /* \"#utility.yul\":11843:11849   */\n      dup3\n        /* \"#utility.yul\":11840:11870   */\n      gt\n        /* \"#utility.yul\":11837:11839   */\n      iszero\n      tag_239\n      jumpi\n        /* \"#utility.yul\":11873:11891   */\n      tag_240\n      tag_241\n      jump\t// in\n    tag_240:\n        /* \"#utility.yul\":11837:11839   */\n    tag_239:\n        /* \"#utility.yul\":11911:11940   */\n      tag_242\n        /* \"#utility.yul\":11933:11939   */\n      dup3\n        /* \"#utility.yul\":11911:11940   */\n      tag_145\n      jump\t// in\n    tag_242:\n        /* \"#utility.yul\":11903:11940   */\n      swap1\n      pop\n        /* \"#utility.yul\":11995:11999   */\n      0x20\n        /* \"#utility.yul\":11989:11993   */\n      dup2\n        /* \"#utility.yul\":11985:12000   */\n      add\n        /* \"#utility.yul\":11977:12000   */\n      swap1\n      pop\n        /* \"#utility.yul\":11766:12007   */\n      swap2\n      swap1\n      pop\n      jump\t// out\n        /* \"#utility.yul\":12013:12154   */\n    tag_160:\n      0x00\n        /* \"#utility.yul\":12085:12088   */\n      dup2\n        /* \"#utility.yul\":12077:12088   */\n      swap1\n      pop\n        /* \"#utility.yul\":12108:12111   */\n      dup2\n        /* \"#utility.yul\":12105:12106   */\n      0x00\n        /* \"#utility.yul\":12098:12112   */\n      mstore\n        /* \"#utility.yul\":12142:12146   */\n      0x20\n        /* \"#utility.yul\":12139:12140   */\n      0x00\n        /* \"#utility.yul\":12129:12147   */\n      keccak256\n        /* \"#utility.yul\":12121:12147   */\n      swap1\n      pop\n        /* \"#utility.yul\":12067:12154   */\n      swap2\n      swap1\n      pop\n      jump\t// out\n        /* \"#utility.yul\":12160:12259   */\n    tag_139:\n      0x00\n        /* \"#utility.yul\":12246:12251   */\n      dup2\n        /* \"#utility.yul\":12240:12252   */\n      mload\n        /* \"#utility.yul\":12230:12252   */\n      swap1\n      pop\n        /* \"#utility.yul\":12219:12259   */\n      swap2\n      swap1\n      pop\n      jump\t// out\n        /* \"#utility.yul\":12265:12434   */\n    tag_141:\n      0x00\n        /* \"#utility.yul\":12383:12389   */\n      dup3\n        /* \"#utility.yul\":12378:12381   */\n      dup3\n        /* \"#utility.yul\":12371:12390   */\n      mstore\n        /* \"#utility.yul\":12423:12427   */\n      0x20\n        /* \"#utility.yul\":12418:12421   */\n      dup3\n        /* \"#utility.yul\":12414:12428   */\n      add\n        /* \"#utility.yul\":12399:12428   */\n      swap1\n      pop\n        /* \"#utility.yul\":12361:12434   */\n      swap3\n      swap2\n      pop\n      pop\n      jump\t// out\n        /* \"#utility.yul\":12440:12588   */\n    tag_150:\n      0x00\n        /* \"#utility.yul\":12579:12582   */\n      dup2\n        /* \"#utility.yul\":12564:12582   */\n      swap1\n      pop\n        /* \"#utility.yul\":12554:12588   */\n      swap3\n      swap2\n      pop\n      pop\n      jump\t// out\n        /* \"#utility.yul\":12594:12684   */\n    tag_135:\n      0x00\n        /* \"#utility.yul\":12671:12676   */\n      dup2\n        /* \"#utility.yul\":12664:12677   */\n      iszero\n        /* \"#utility.yul\":12657:12678   */\n      iszero\n        /* \"#utility.yul\":12646:12678   */\n      swap1\n      pop\n        /* \"#utility.yul\":12636:12684   */\n      swap2\n      swap1\n      pop\n      jump\t// out\n        /* \"#utility.yul\":12690:12767   */\n    tag_248:\n      0x00\n        /* \"#utility.yul\":12756:12761   */\n      dup2\n        /* \"#utility.yul\":12745:12761   */\n      swap1\n      pop\n        /* \"#utility.yul\":12735:12767   */\n      swap2\n      swap1\n      pop\n      jump\t// out\n        /* \"#utility.yul\":12773:12927   */\n    tag_109:\n        /* \"#utility.yul\":12857:12863   */\n      dup3\n        /* \"#utility.yul\":12852:12855   */\n      dup2\n        /* \"#utility.yul\":12847:12850   */\n      dup4\n        /* \"#utility.yul\":12834:12864   */\n      calldatacopy\n        /* \"#utility.yul\":12919:12920   */\n      0x00\n        /* \"#utility.yul\":12910:12916   */\n      dup4\n        /* \"#utility.yul\":12905:12908   */\n      dup4\n        /* \"#utility.yul\":12901:12917   */\n      add\n        /* \"#utility.yul\":12894:12921   */\n      mstore\n        /* \"#utility.yul\":12824:12927   */\n      pop\n      pop\n      pop\n      jump\t// out\n        /* \"#utility.yul\":12933:13240   */\n    tag_143:\n        /* \"#utility.yul\":13001:13002   */\n      0x00\n        /* \"#utility.yul\":13011:13124   */\n    tag_252:\n        /* \"#utility.yul\":13025:13031   */\n      dup4\n        /* \"#utility.yul\":13022:13023   */\n      dup2\n        /* \"#utility.yul\":13019:13032   */\n      lt\n        /* \"#utility.yul\":13011:13124   */\n      iszero\n      tag_254\n      jumpi\n        /* \"#utility.yul\":13110:13111   */\n      dup1\n        /* \"#utility.yul\":13105:13108   */\n      dup3\n        /* \"#utility.yul\":13101:13112   */\n      add\n        /* \"#utility.yul\":13095:13113   */\n      mload\n        /* \"#utility.yul\":13091:13092   */\n      dup2\n        /* \"#utility.yul\":13086:13089   */\n      dup5\n        /* \"#utility.yul\":13082:13093   */\n      add\n        /* \"#utility.yul\":13075:13114   */\n      mstore\n        /* \"#utility.yul\":13047:13049   */\n      0x20\n        /* \"#utility.yul\":13044:13045   */\n      dup2\n        /* \"#utility.yul\":13040:13050   */\n      add\n        /* \"#utility.yul\":13035:13050   */\n      swap1\n      pop\n        /* \"#utility.yul\":13011:13124   */\n      jump(tag_252)\n    tag_254:\n        /* \"#utility.yul\":13142:13148   */\n      dup4\n        /* \"#utility.yul\":13139:13140   */\n      dup2\n        /* \"#utility.yul\":13136:13149   */\n      gt\n        /* \"#utility.yul\":13133:13135   */\n      iszero\n      tag_255\n      jumpi\n        /* \"#utility.yul\":13222:13223   */\n      0x00\n        /* \"#utility.yul\":13213:13219   */\n      dup5\n        /* \"#utility.yul\":13208:13211   */\n      dup5\n        /* \"#utility.yul\":13204:13220   */\n      add\n        /* \"#utility.yul\":13197:13224   */\n      mstore\n        /* \"#utility.yul\":13133:13135   */\n    tag_255:\n        /* \"#utility.yul\":12982:13240   */\n      pop\n      pop\n      pop\n      pop\n      jump\t// out\n        /* \"#utility.yul\":13246:13566   */\n    tag_85:\n      0x00\n        /* \"#utility.yul\":13327:13328   */\n      0x02\n        /* \"#utility.yul\":13321:13325   */\n      dup3\n        /* \"#utility.yul\":13317:13329   */\n      div\n        /* \"#utility.yul\":13307:13329   */\n      swap1\n      pop\n        /* \"#utility.yul\":13374:13375   */\n      0x01\n        /* \"#utility.yul\":13368:13372   */\n      dup3\n        /* \"#utility.yul\":13364:13376   */\n      and\n        /* \"#utility.yul\":13395:13413   */\n      dup1\n        /* \"#utility.yul\":13385:13387   */\n      tag_257\n      jumpi\n        /* \"#utility.yul\":13451:13455   */\n      0x7f\n        /* \"#utility.yul\":13443:13449   */\n      dup3\n        /* \"#utility.yul\":13439:13456   */\n      and\n        /* \"#utility.yul\":13429:13456   */\n      swap2\n      pop\n        /* \"#utility.yul\":13385:13387   */\n    tag_257:\n        /* \"#utility.yul\":13513:13515   */\n      0x20\n        /* \"#utility.yul\":13505:13511   */\n      dup3\n        /* \"#utility.yul\":13502:13516   */\n      lt\n        /* \"#utility.yul\":13482:13500   */\n      dup2\n        /* \"#utility.yul\":13479:13517   */\n      eq\n        /* \"#utility.yul\":13476:13478   */\n      iszero\n      tag_258\n      jumpi\n        /* \"#utility.yul\":13532:13550   */\n      tag_259\n      tag_260\n      jump\t// in\n    tag_259:\n        /* \"#utility.yul\":13476:13478   */\n    tag_258:\n        /* \"#utility.yul\":13297:13566   */\n      pop\n      swap2\n      swap1\n      pop\n      jump\t// out\n        /* \"#utility.yul\":13572:13853   */\n    tag_236:\n        /* \"#utility.yul\":13655:13682   */\n      tag_262\n        /* \"#utility.yul\":13677:13681   */\n      dup3\n        /* \"#utility.yul\":13655:13682   */\n      tag_145\n      jump\t// in\n    tag_262:\n        /* \"#utility.yul\":13647:13653   */\n      dup2\n        /* \"#utility.yul\":13643:13683   */\n      add\n        /* \"#utility.yul\":13785:13791   */\n      dup2\n        /* \"#utility.yul\":13773:13783   */\n      dup2\n        /* \"#utility.yul\":13770:13792   */\n      lt\n        /* \"#utility.yul\":13749:13767   */\n      0xffffffffffffffff\n        /* \"#utility.yul\":13737:13747   */\n      dup3\n        /* \"#utility.yul\":13734:13768   */\n      gt\n        /* \"#utility.yul\":13731:13793   */\n      or\n        /* \"#utility.yul\":13728:13730   */\n      iszero\n      tag_263\n      jumpi\n        /* \"#utility.yul\":13796:13814   */\n      tag_264\n      tag_241\n      jump\t// in\n    tag_264:\n        /* \"#utility.yul\":13728:13730   */\n    tag_263:\n        /* \"#utility.yul\":13836:13846   */\n      dup1\n        /* \"#utility.yul\":13832:13834   */\n      0x40\n        /* \"#utility.yul\":13825:13847   */\n      mstore\n        /* \"#utility.yul\":13615:13853   */\n      pop\n      pop\n      pop\n      jump\t// out\n        /* \"#utility.yul\":13859:14092   */\n    tag_35:\n      0x00\n        /* \"#utility.yul\":13921:13945   */\n      tag_266\n        /* \"#utility.yul\":13939:13944   */\n      dup3\n        /* \"#utility.yul\":13921:13945   */\n      tag_248\n      jump\t// in\n    tag_266:\n        /* \"#utility.yul\":13912:13945   */\n      swap2\n      pop\n        /* \"#utility.yul\":13967:14033   */\n      0xffffffffffffffffffffffffffffffffffffffffffffffffffffffffffffffff\n        /* \"#utility.yul\":13960:13965   */\n      dup3\n        /* \"#utility.yul\":13957:14034   */\n      eq\n        /* \"#utility.yul\":13954:13956   */\n      iszero\n      tag_267\n      jumpi\n        /* \"#utility.yul\":14037:14055   */\n      tag_268\n      tag_269\n      jump\t// in\n    tag_268:\n        /* \"#utility.yul\":13954:13956   */\n    tag_267:\n        /* \"#utility.yul\":14084:14085   */\n      0x01\n        /* \"#utility.yul\":14077:14082   */\n      dup3\n        /* \"#utility.yul\":14073:14086   */\n      add\n        /* \"#utility.yul\":14066:14086   */\n      swap1\n      pop\n        /* \"#utility.yul\":13902:14092   */\n      swap2\n      swap1\n      pop\n      jump\t// out\n        /* \"#utility.yul\":14098:14278   */\n    tag_269:\n        /* \"#utility.yul\":14146:14223   */\n      0x4e487b7100000000000000000000000000000000000000000000000000000000\n        /* \"#utility.yul\":14143:14144   */\n      0x00\n        /* \"#utility.yul\":14136:14224   */\n      mstore\n        /* \"#utility.yul\":14243:14247   */\n      0x11\n        /* \"#utility.yul\":14240:14241   */\n      0x04\n        /* \"#utility.yul\":14233:14248   */\n      mstore\n        /* \"#utility.yul\":14267:14271   */\n      0x24\n        /* \"#utility.yul\":14264:14265   */\n      0x00\n        /* \"#utility.yul\":14257:14272   */\n      revert\n        /* \"#utility.yul\":14284:14464   */\n    tag_260:\n        /* \"#utility.yul\":14332:14409   */\n      0x4e487b7100000000000000000000000000000000000000000000000000000000\n        /* \"#utility.yul\":14329:14330   */\n      0x00\n        /* \"#utility.yul\":14322:14410   */\n      mstore\n        /* \"#utility.yul\":14429:14433   */\n      0x22\n        /* \"#utility.yul\":14426:14427   */\n      0x04\n        /* \"#utility.yul\":14419:14434   */\n      mstore\n        /* \"#utility.yul\":14453:14457   */\n      0x24\n        /* \"#utility.yul\":14450:14451   */\n      0x00\n        /* \"#utility.yul\":14443:14458   */\n      revert\n        /* \"#utility.yul\":14470:14650   */\n    tag_241:\n        /* \"#utility.yul\":14518:14595   */\n      0x4e487b7100000000000000000000000000000000000000000000000000000000\n        /* \"#utility.yul\":14515:14516   */\n      0x00\n        /* \"#utility.yul\":14508:14596   */\n      mstore\n        /* \"#utility.yul\":14615:14619   */\n      0x41\n        /* \"#utility.yul\":14612:14613   */\n      0x04\n        /* \"#utility.yul\":14605:14620   */\n      mstore\n        /* \"#utility.yul\":14639:14643   */\n      0x24\n        /* \"#utility.yul\":14636:14637   */\n      0x00\n        /* \"#utility.yul\":14629:14644   */\n      revert\n        /* \"#utility.yul\":14656:14758   */\n    tag_145:\n      0x00\n        /* \"#utility.yul\":14748:14750   */\n      0x1f\n        /* \"#utility.yul\":14744:14751   */\n      not\n        /* \"#utility.yul\":14739:14741   */\n      0x1f\n        /* \"#utility.yul\":14732:14737   */\n      dup4\n        /* \"#utility.yul\":14728:14742   */\n      add\n        /* \"#utility.yul\":14724:14752   */\n      and\n        /* \"#utility.yul\":14714:14752   */\n      swap1\n      pop\n        /* \"#utility.yul\":14704:14758   */\n      swap2\n      swap1\n      pop\n      jump\t// out\n        /* \"#utility.yul\":14764:14939   */\n    tag_179:\n        /* \"#utility.yul\":14904:14931   */\n      0x20686173206265656e206465636c617265642077696e6e657200000000000000\n        /* \"#utility.yul\":14900:14901   */\n      0x00\n        /* \"#utility.yul\":14892:14898   */\n      dup3\n        /* \"#utility.yul\":14888:14902   */\n      add\n        /* \"#utility.yul\":14881:14932   */\n      mstore\n        /* \"#utility.yul\":14870:14939   */\n      pop\n      jump\t// out\n        /* \"#utility.yul\":14945:15099   */\n    tag_184:\n        /* \"#utility.yul\":15085:15091   */\n      0x6c6f737400000000000000000000000000000000000000000000000000000000\n        /* \"#utility.yul\":15081:15082   */\n      0x00\n        /* \"#utility.yul\":15073:15079   */\n      dup3\n        /* \"#utility.yul\":15069:15083   */\n      add\n        /* \"#utility.yul\":15062:15092   */\n      mstore\n        /* \"#utility.yul\":15051:15099   */\n      pop\n      jump\t// out\n        /* \"#utility.yul\":15105:15257   */\n    tag_189:\n        /* \"#utility.yul\":15245:15249   */\n      0x6e6f000000000000000000000000000000000000000000000000000000000000\n        /* \"#utility.yul\":15241:15242   */\n      0x00\n        /* \"#utility.yul\":15233:15239   */\n      dup3\n        /* \"#utility.yul\":15229:15243   */\n      add\n        /* \"#utility.yul\":15222:15250   */\n      mstore\n        /* \"#utility.yul\":15211:15257   */\n      pop\n      jump\t// out\n        /* \"#utility.yul\":15263:15416   */\n    tag_194:\n        /* \"#utility.yul\":15403:15408   */\n      0x7965730000000000000000000000000000000000000000000000000000000000\n        /* \"#utility.yul\":15399:15400   */\n      0x00\n        /* \"#utility.yul\":15391:15397   */\n      dup3\n        /* \"#utility.yul\":15387:15401   */\n      add\n        /* \"#utility.yul\":15380:15409   */\n      mstore\n        /* \"#utility.yul\":15369:15416   */\n      pop\n      jump\t// out\n        /* \"#utility.yul\":15422:15653   */\n    tag_199:\n        /* \"#utility.yul\":15562:15596   */\n      0x596f7520617265206e6f7420656c696769626c65212074727920616761696e20\n        /* \"#utility.yul\":15558:15559   */\n      0x00\n        /* \"#utility.yul\":15550:15556   */\n      dup3\n        /* \"#utility.yul\":15546:15560   */\n      add\n        /* \"#utility.yul\":15539:15597   */\n      mstore\n        /* \"#utility.yul\":15631:15645   */\n      0x696e206665772079656172730000000000000000000000000000000000000000\n        /* \"#utility.yul\":15626:15628   */\n      0x20\n        /* \"#utility.yul\":15618:15624   */\n      dup3\n        /* \"#utility.yul\":15614:15629   */\n      add\n        /* \"#utility.yul\":15607:15646   */\n      mstore\n        /* \"#utility.yul\":15528:15653   */\n      pop\n      jump\t// out\n        /* \"#utility.yul\":15659:15833   */\n    tag_204:\n        /* \"#utility.yul\":15799:15825   */\n      0x596f752068617665206265656e20726567697374657265640000000000000000\n        /* \"#utility.yul\":15795:15796   */\n      0x00\n        /* \"#utility.yul\":15787:15793   */\n      dup3\n        /* \"#utility.yul\":15783:15797   */\n      add\n        /* \"#utility.yul\":15776:15826   */\n      mstore\n        /* \"#utility.yul\":15765:15833   */\n      pop\n      jump\t// out\n        /* \"#utility.yul\":15839:15955   */\n    tag_113:\n        /* \"#utility.yul\":15909:15930   */\n      tag_281\n        /* \"#utility.yul\":15924:15929   */\n      dup2\n        /* \"#utility.yul\":15909:15930   */\n      tag_135\n      jump\t// in\n    tag_281:\n        /* \"#utility.yul\":15902:15907   */\n      dup2\n        /* \"#utility.yul\":15899:15931   */\n      eq\n        /* \"#utility.yul\":15889:15891   */\n      tag_282\n      jumpi\n        /* \"#utility.yul\":15945:15946   */\n      0x00\n        /* \"#utility.yul\":15942:15943   */\n      dup1\n        /* \"#utility.yul\":15935:15947   */\n      revert\n        /* \"#utility.yul\":15889:15891   */\n    tag_282:\n        /* \"#utility.yul\":15879:15955   */\n      pop\n      jump\t// out\n        /* \"#utility.yul\":15961:16083   */\n    tag_121:\n        /* \"#utility.yul\":16034:16058   */\n      tag_284\n        /* \"#utility.yul\":16052:16057   */\n      dup2\n        /* \"#utility.yul\":16034:16058   */\n      tag_248\n      jump\t// in\n    tag_284:\n        /* \"#utility.yul\":16027:16032   */\n      dup2\n        /* \"#utility.yul\":16024:16059   */\n      eq\n        /* \"#utility.yul\":16014:16016   */\n      tag_285\n      jumpi\n        /* \"#utility.yul\":16073:16074   */\n      0x00\n        /* \"#utility.yul\":16070:16071   */\n      dup1\n        /* \"#utility.yul\":16063:16075   */\n      revert\n        /* \"#utility.yul\":16014:16016   */\n    tag_285:\n        /* \"#utility.yul\":16004:16083   */\n      pop\n      jump\t// out\n\n    auxdata: 0xa264697066735822122008090e5508e6a6ba40af9fb8633ccca799726fcfc6839755f7233c68a0734fc364736f6c63430008020033\n}\n",
				"bytecode": {
					"linkReferences": {},
					"object": "608060405234801561001057600080fd5b506111d5806100206000396000f3fe608060405234801561001057600080fd5b50600436106100415760003560e01c806335da56dc14610046578063740f966014610076578063e21f37ce146100a6575b600080fd5b610060600480360381019061005b91906109d0565b6100c4565b60405161006d9190610d9d565b60405180910390f35b610090600480360381019061008b9190610a11565b61042e565b60405161009d9190610d9d565b60405180910390f35b6100ae61080d565b6040516100bb9190610d9d565b60405180910390f35b606060008060005b6008856040516100dc9190610cc2565b9081526020016040518091039020600101805490508110156102915760405160200161010790610d6d565b6040516020818303038152906040528051906020012060088660405161012d9190610cc2565b90815260200160405180910390206001018281548110610176577f4e487b7100000000000000000000000000000000000000000000000000000000600052603260045260246000fd5b906000526020600020016040516020016101909190610d41565b6040516020818303038152906040528051906020012014156101bb5782806101b790610f6e565b9350505b6040516020016101ca90610d58565b604051602081830303815290604052805190602001206008866040516101f09190610cc2565b90815260200160405180910390206001018281548110610239577f4e487b7100000000000000000000000000000000000000000000000000000000600052603260045260246000fd5b906000526020600020016040516020016102539190610d41565b60405160208183030381529060405280519060200120141561027e57818061027a90610f6e565b9250505b808061028990610f6e565b9150506100cc565b50836040516102a09190610cc2565b60405180910390207f0737b1b054db2ae40fa5d974a99774f13c515d19b1fed0735ac53e0224f8c38160016040516102d89190610dbf565b60405180910390a28082111561032357836040516020016102f99190610cfd565b6040516020818303038152906040526001908051906020019061031d92919061089b565b506103b4565b80821015610366578360405160200161033c9190610d1f565b6040516020818303038152906040526001908051906020019061036092919061089b565b506103b3565b6040518060400160405280600f81526020017f20656e64656420696e2061207469650000000000000000000000000000000000815250600190805190602001906103b192919061089b565b505b5b836040516103c29190610cc2565b60405180910390207f0737b1b054db2ae40fa5d974a99774f13c515d19b1fed0735ac53e0224f8c38160016040516103fa9190610dbf565b60405180910390a2836001604051602001610416929190610cd9565b60405160208183030381529060405292505050919050565b6060336012600760008373ffffffffffffffffffffffffffffffffffffffff1673ffffffffffffffffffffffffffffffffffffffff16815260200190815260200160002060010154116104b6576040517f08c379a00000000000000000000000000000000000000000000000000000000081526004016104ad90610de1565b60405180910390fd5b33600760008273ffffffffffffffffffffffffffffffffffffffff1673ffffffffffffffffffffffffffffffffffffffff16815260200190815260200160002060020160019054906101000a900460ff1615610547576040517f08c379a000000000000000000000000000000000000000000000000000000000815260040161053e90610e01565b60405180910390fd5b60606001151585151514156105ea576040518060400160405280600381526020017f7965730000000000000000000000000000000000000000000000000000000000815250905060088760405161059e9190610cc2565b9081526020016040518091039020600101819080600181540180825580915050600190039060005260206000200160009091909190915090805190602001906105e892919061089b565b505b60001515851515141561068b576040518060400160405280600281526020017f6e6f000000000000000000000000000000000000000000000000000000000000815250905060088760405161063f9190610cc2565b90815260200160405180910390206001018190806001815401808255809150506001900390600052602060002001600090919091909150908051906020019061068992919061089b565b505b604051806080016040528088815260200187815260200186151581526020016001600760003373ffffffffffffffffffffffffffffffffffffffff1673ffffffffffffffffffffffffffffffffffffffff16815260200190815260200160002060020160016101000a81548160ff02191690831515021790551515815250600760003373ffffffffffffffffffffffffffffffffffffffff1673ffffffffffffffffffffffffffffffffffffffff168152602001908152602001600020600082015181600001908051906020019061076492919061089b565b506020820151816001015560408201518160020160006101000a81548160ff02191690831515021790555060608201518160020160016101000a81548160ff0219169083151502179055509050503373ffffffffffffffffffffffffffffffffffffffff167ffa041dd7fda6fbb9d48aca1d7da5529c066fd2af30330fc5c4102316813cbddb866040516107f89190610d82565b60405180910390a28093505050509392505050565b6001805461081a90610f0b565b80601f016020809104026020016040519081016040528092919081815260200182805461084690610f0b565b80156108935780601f1061086857610100808354040283529160200191610893565b820191906000526020600020905b81548152906001019060200180831161087657829003601f168201915b505050505081565b8280546108a790610f0b565b90600052602060002090601f0160209004810192826108c95760008555610910565b82601f106108e257805160ff1916838001178555610910565b82800160010185558215610910579182015b8281111561090f5782518255916020019190600101906108f4565b5b50905061091d9190610921565b5090565b5b8082111561093a576000816000905550600101610922565b5090565b600061095161094c84610e46565b610e21565b90508281526020810184848401111561096957600080fd5b610974848285610ec9565b509392505050565b60008135905061098b81611171565b92915050565b600082601f8301126109a257600080fd5b81356109b284826020860161093e565b91505092915050565b6000813590506109ca81611188565b92915050565b6000602082840312156109e257600080fd5b600082013567ffffffffffffffff8111156109fc57600080fd5b610a0884828501610991565b91505092915050565b600080600060608486031215610a2657600080fd5b600084013567ffffffffffffffff811115610a4057600080fd5b610a4c86828701610991565b9350506020610a5d868287016109bb565b9250506040610a6e8682870161097c565b9150509250925092565b610a8181610eb3565b82525050565b6000610a9282610e8c565b610a9c8185610e97565b9350610aac818560208601610ed8565b610ab581611044565b840191505092915050565b6000610acb82610e8c565b610ad58185610ea8565b9350610ae5818560208601610ed8565b80840191505092915050565b60008154610afe81610f0b565b610b088186610e97565b94506001821660008114610b235760018114610b3557610b68565b60ff1983168652602086019350610b68565b610b3e85610e77565b60005b83811015610b6057815481890152600182019150602081019050610b41565b808801955050505b50505092915050565b60008154610b7e81610f0b565b610b888186610ea8565b94506001821660008114610ba35760018114610bb457610be7565b60ff19831686528186019350610be7565b610bbd85610e77565b60005b83811015610bdf57815481890152600182019150602081019050610bc0565b838801955050505b50505092915050565b6000610bfd601983610ea8565b9150610c0882611055565b601982019050919050565b6000610c20600483610ea8565b9150610c2b8261107e565b600482019050919050565b6000610c43600283610ea8565b9150610c4e826110a7565b600282019050919050565b6000610c66600383610ea8565b9150610c71826110d0565b600382019050919050565b6000610c89602c83610e97565b9150610c94826110f9565b604082019050919050565b6000610cac601883610e97565b9150610cb782611148565b602082019050919050565b6000610cce8284610ac0565b915081905092915050565b6000610ce58285610ac0565b9150610cf18284610b71565b91508190509392505050565b6000610d098284610ac0565b9150610d1482610bf0565b915081905092915050565b6000610d2b8284610ac0565b9150610d3682610c13565b915081905092915050565b6000610d4d8284610b71565b915081905092915050565b6000610d6382610c36565b9150819050919050565b6000610d7882610c59565b9150819050919050565b6000602082019050610d976000830184610a78565b92915050565b60006020820190508181036000830152610db78184610a87565b905092915050565b60006020820190508181036000830152610dd98184610af1565b905092915050565b60006020820190508181036000830152610dfa81610c7c565b9050919050565b60006020820190508181036000830152610e1a81610c9f565b9050919050565b6000610e2b610e3c565b9050610e378282610f3d565b919050565b6000604051905090565b600067ffffffffffffffff821115610e6157610e60611015565b5b610e6a82611044565b9050602081019050919050565b60008190508160005260206000209050919050565b600081519050919050565b600082825260208201905092915050565b600081905092915050565b60008115159050919050565b6000819050919050565b82818337600083830152505050565b60005b83811015610ef6578082015181840152602081019050610edb565b83811115610f05576000848401525b50505050565b60006002820490506001821680610f2357607f821691505b60208210811415610f3757610f36610fe6565b5b50919050565b610f4682611044565b810181811067ffffffffffffffff82111715610f6557610f64611015565b5b80604052505050565b6000610f7982610ebf565b91507fffffffffffffffffffffffffffffffffffffffffffffffffffffffffffffffff821415610fac57610fab610fb7565b5b600182019050919050565b7f4e487b7100000000000000000000000000000000000000000000000000000000600052601160045260246000fd5b7f4e487b7100000000000000000000000000000000000000000000000000000000600052602260045260246000fd5b7f4e487b7100000000000000000000000000000000000000000000000000000000600052604160045260246000fd5b6000601f19601f8301169050919050565b7f20686173206265656e206465636c617265642077696e6e657200000000000000600082015250565b7f6c6f737400000000000000000000000000000000000000000000000000000000600082015250565b7f6e6f000000000000000000000000000000000000000000000000000000000000600082015250565b7f7965730000000000000000000000000000000000000000000000000000000000600082015250565b7f596f7520617265206e6f7420656c696769626c65212074727920616761696e2060008201527f696e206665772079656172730000000000000000000000000000000000000000602082015250565b7f596f752068617665206265656e20726567697374657265640000000000000000600082015250565b61117a81610eb3565b811461118557600080fd5b50565b61119181610ebf565b811461119c57600080fd5b5056fea264697066735822122008090e5508e6a6ba40af9fb8633ccca799726fcfc6839755f7233c68a0734fc364736f6c63430008020033",
					"opcodes": "PUSH1 0x80 PUSH1 0x40 MSTORE CALLVALUE DUP1 ISZERO PUSH2 0x10 JUMPI PUSH1 0x0 DUP1 REVERT JUMPDEST POP PUSH2 0x11D5 DUP1 PUSH2 0x20 PUSH1 0x0 CODECOPY PUSH1 0x0 RETURN INVALID PUSH1 0x80 PUSH1 0x40 MSTORE CALLVALUE DUP1 ISZERO PUSH2 0x10 JUMPI PUSH1 0x0 DUP1 REVERT JUMPDEST POP PUSH1 0x4 CALLDATASIZE LT PUSH2 0x41 JUMPI PUSH1 0x0 CALLDATALOAD PUSH1 0xE0 SHR DUP1 PUSH4 0x35DA56DC EQ PUSH2 0x46 JUMPI DUP1 PUSH4 0x740F9660 EQ PUSH2 0x76 JUMPI DUP1 PUSH4 0xE21F37CE EQ PUSH2 0xA6 JUMPI JUMPDEST PUSH1 0x0 DUP1 REVERT JUMPDEST PUSH2 0x60 PUSH1 0x4 DUP1 CALLDATASIZE SUB DUP2 ADD SWAP1 PUSH2 0x5B SWAP2 SWAP1 PUSH2 0x9D0 JUMP JUMPDEST PUSH2 0xC4 JUMP JUMPDEST PUSH1 0x40 MLOAD PUSH2 0x6D SWAP2 SWAP1 PUSH2 0xD9D JUMP JUMPDEST PUSH1 0x40 MLOAD DUP1 SWAP2 SUB SWAP1 RETURN JUMPDEST PUSH2 0x90 PUSH1 0x4 DUP1 CALLDATASIZE SUB DUP2 ADD SWAP1 PUSH2 0x8B SWAP2 SWAP1 PUSH2 0xA11 JUMP JUMPDEST PUSH2 0x42E JUMP JUMPDEST PUSH1 0x40 MLOAD PUSH2 0x9D SWAP2 SWAP1 PUSH2 0xD9D JUMP JUMPDEST PUSH1 0x40 MLOAD DUP1 SWAP2 SUB SWAP1 RETURN JUMPDEST PUSH2 0xAE PUSH2 0x80D JUMP JUMPDEST PUSH1 0x40 MLOAD PUSH2 0xBB SWAP2 SWAP1 PUSH2 0xD9D JUMP JUMPDEST PUSH1 0x40 MLOAD DUP1 SWAP2 SUB SWAP1 RETURN JUMPDEST PUSH1 0x60 PUSH1 0x0 DUP1 PUSH1 0x0 JUMPDEST PUSH1 0x8 DUP6 PUSH1 0x40 MLOAD PUSH2 0xDC SWAP2 SWAP1 PUSH2 0xCC2 JUMP JUMPDEST SWAP1 DUP2 MSTORE PUSH1 0x20 ADD PUSH1 0x40 MLOAD DUP1 SWAP2 SUB SWAP1 KECCAK256 PUSH1 0x1 ADD DUP1 SLOAD SWAP1 POP DUP2 LT ISZERO PUSH2 0x291 JUMPI PUSH1 0x40 MLOAD PUSH1 0x20 ADD PUSH2 0x107 SWAP1 PUSH2 0xD6D JUMP JUMPDEST PUSH1 0x40 MLOAD PUSH1 0x20 DUP2 DUP4 SUB SUB DUP2 MSTORE SWAP1 PUSH1 0x40 MSTORE DUP1 MLOAD SWAP1 PUSH1 0x20 ADD KECCAK256 PUSH1 0x8 DUP7 PUSH1 0x40 MLOAD PUSH2 0x12D SWAP2 SWAP1 PUSH2 0xCC2 JUMP JUMPDEST SWAP1 DUP2 MSTORE PUSH1 0x20 ADD PUSH1 0x40 MLOAD DUP1 SWAP2 SUB SWAP1 KECCAK256 PUSH1 0x1 ADD DUP3 DUP2 SLOAD DUP2 LT PUSH2 0x176 JUMPI PUSH32 0x4E487B7100000000000000000000000000000000000000000000000000000000 PUSH1 0x0 MSTORE PUSH1 0x32 PUSH1 0x4 MSTORE PUSH1 0x24 PUSH1 0x0 REVERT JUMPDEST SWAP1 PUSH1 0x0 MSTORE PUSH1 0x20 PUSH1 0x0 KECCAK256 ADD PUSH1 0x40 MLOAD PUSH1 0x20 ADD PUSH2 0x190 SWAP2 SWAP1 PUSH2 0xD41 JUMP JUMPDEST PUSH1 0x40 MLOAD PUSH1 0x20 DUP2 DUP4 SUB SUB DUP2 MSTORE SWAP1 PUSH1 0x40 MSTORE DUP1 MLOAD SWAP1 PUSH1 0x20 ADD KECCAK256 EQ ISZERO PUSH2 0x1BB JUMPI DUP3 DUP1 PUSH2 0x1B7 SWAP1 PUSH2 0xF6E JUMP JUMPDEST SWAP4 POP POP JUMPDEST PUSH1 0x40 MLOAD PUSH1 0x20 ADD PUSH2 0x1CA SWAP1 PUSH2 0xD58 JUMP JUMPDEST PUSH1 0x40 MLOAD PUSH1 0x20 DUP2 DUP4 SUB SUB DUP2 MSTORE SWAP1 PUSH1 0x40 MSTORE DUP1 MLOAD SWAP1 PUSH1 0x20 ADD KECCAK256 PUSH1 0x8 DUP7 PUSH1 0x40 MLOAD PUSH2 0x1F0 SWAP2 SWAP1 PUSH2 0xCC2 JUMP JUMPDEST SWAP1 DUP2 MSTORE PUSH1 0x20 ADD PUSH1 0x40 MLOAD DUP1 SWAP2 SUB SWAP1 KECCAK256 PUSH1 0x1 ADD DUP3 DUP2 SLOAD DUP2 LT PUSH2 0x239 JUMPI PUSH32 0x4E487B7100000000000000000000000000000000000000000000000000000000 PUSH1 0x0 MSTORE PUSH1 0x32 PUSH1 0x4 MSTORE PUSH1 0x24 PUSH1 0x0 REVERT JUMPDEST SWAP1 PUSH1 0x0 MSTORE PUSH1 0x20 PUSH1 0x0 KECCAK256 ADD PUSH1 0x40 MLOAD PUSH1 0x20 ADD PUSH2 0x253 SWAP2 SWAP1 PUSH2 0xD41 JUMP JUMPDEST PUSH1 0x40 MLOAD PUSH1 0x20 DUP2 DUP4 SUB SUB DUP2 MSTORE SWAP1 PUSH1 0x40 MSTORE DUP1 MLOAD SWAP1 PUSH1 0x20 ADD KECCAK256 EQ ISZERO PUSH2 0x27E JUMPI DUP2 DUP1 PUSH2 0x27A SWAP1 PUSH2 0xF6E JUMP JUMPDEST SWAP3 POP POP JUMPDEST DUP1 DUP1 PUSH2 0x289 SWAP1 PUSH2 0xF6E JUMP JUMPDEST SWAP2 POP POP PUSH2 0xCC JUMP JUMPDEST POP DUP4 PUSH1 0x40 MLOAD PUSH2 0x2A0 SWAP2 SWAP1 PUSH2 0xCC2 JUMP JUMPDEST PUSH1 0x40 MLOAD DUP1 SWAP2 SUB SWAP1 KECCAK256 PUSH32 0x737B1B054DB2AE40FA5D974A99774F13C515D19B1FED0735AC53E0224F8C381 PUSH1 0x1 PUSH1 0x40 MLOAD PUSH2 0x2D8 SWAP2 SWAP1 PUSH2 0xDBF JUMP JUMPDEST PUSH1 0x40 MLOAD DUP1 SWAP2 SUB SWAP1 LOG2 DUP1 DUP3 GT ISZERO PUSH2 0x323 JUMPI DUP4 PUSH1 0x40 MLOAD PUSH1 0x20 ADD PUSH2 0x2F9 SWAP2 SWAP1 PUSH2 0xCFD JUMP JUMPDEST PUSH1 0x40 MLOAD PUSH1 0x20 DUP2 DUP4 SUB SUB DUP2 MSTORE SWAP1 PUSH1 0x40 MSTORE PUSH1 0x1 SWAP1 DUP1 MLOAD SWAP1 PUSH1 0x20 ADD SWAP1 PUSH2 0x31D SWAP3 SWAP2 SWAP1 PUSH2 0x89B JUMP JUMPDEST POP PUSH2 0x3B4 JUMP JUMPDEST DUP1 DUP3 LT ISZERO PUSH2 0x366 JUMPI DUP4 PUSH1 0x40 MLOAD PUSH1 0x20 ADD PUSH2 0x33C SWAP2 SWAP1 PUSH2 0xD1F JUMP JUMPDEST PUSH1 0x40 MLOAD PUSH1 0x20 DUP2 DUP4 SUB SUB DUP2 MSTORE SWAP1 PUSH1 0x40 MSTORE PUSH1 0x1 SWAP1 DUP1 MLOAD SWAP1 PUSH1 0x20 ADD SWAP1 PUSH2 0x360 SWAP3 SWAP2 SWAP1 PUSH2 0x89B JUMP JUMPDEST POP PUSH2 0x3B3 JUMP JUMPDEST PUSH1 0x40 MLOAD DUP1 PUSH1 0x40 ADD PUSH1 0x40 MSTORE DUP1 PUSH1 0xF DUP2 MSTORE PUSH1 0x20 ADD PUSH32 0x20656E64656420696E2061207469650000000000000000000000000000000000 DUP2 MSTORE POP PUSH1 0x1 SWAP1 DUP1 MLOAD SWAP1 PUSH1 0x20 ADD SWAP1 PUSH2 0x3B1 SWAP3 SWAP2 SWAP1 PUSH2 0x89B JUMP JUMPDEST POP JUMPDEST JUMPDEST DUP4 PUSH1 0x40 MLOAD PUSH2 0x3C2 SWAP2 SWAP1 PUSH2 0xCC2 JUMP JUMPDEST PUSH1 0x40 MLOAD DUP1 SWAP2 SUB SWAP1 KECCAK256 PUSH32 0x737B1B054DB2AE40FA5D974A99774F13C515D19B1FED0735AC53E0224F8C381 PUSH1 0x1 PUSH1 0x40 MLOAD PUSH2 0x3FA SWAP2 SWAP1 PUSH2 0xDBF JUMP JUMPDEST PUSH1 0x40 MLOAD DUP1 SWAP2 SUB SWAP1 LOG2 DUP4 PUSH1 0x1 PUSH1 0x40 MLOAD PUSH1 0x20 ADD PUSH2 0x416 SWAP3 SWAP2 SWAP1 PUSH2 0xCD9 JUMP JUMPDEST PUSH1 0x40 MLOAD PUSH1 0x20 DUP2 DUP4 SUB SUB DUP2 MSTORE SWAP1 PUSH1 0x40 MSTORE SWAP3 POP POP POP SWAP2 SWAP1 POP JUMP JUMPDEST PUSH1 0x60 CALLER PUSH1 0x12 PUSH1 0x7 PUSH1 0x0 DUP4 PUSH20 0xFFFFFFFFFFFFFFFFFFFFFFFFFFFFFFFFFFFFFFFF AND PUSH20 0xFFFFFFFFFFFFFFFFFFFFFFFFFFFFFFFFFFFFFFFF AND DUP2 MSTORE PUSH1 0x20 ADD SWAP1 DUP2 MSTORE PUSH1 0x20 ADD PUSH1 0x0 KECCAK256 PUSH1 0x1 ADD SLOAD GT PUSH2 0x4B6 JUMPI PUSH1 0x40 MLOAD PUSH32 0x8C379A000000000000000000000000000000000000000000000000000000000 DUP2 MSTORE PUSH1 0x4 ADD PUSH2 0x4AD SWAP1 PUSH2 0xDE1 JUMP JUMPDEST PUSH1 0x40 MLOAD DUP1 SWAP2 SUB SWAP1 REVERT JUMPDEST CALLER PUSH1 0x7 PUSH1 0x0 DUP3 PUSH20 0xFFFFFFFFFFFFFFFFFFFFFFFFFFFFFFFFFFFFFFFF AND PUSH20 0xFFFFFFFFFFFFFFFFFFFFFFFFFFFFFFFFFFFFFFFF AND DUP2 MSTORE PUSH1 0x20 ADD SWAP1 DUP2 MSTORE PUSH1 0x20 ADD PUSH1 0x0 KECCAK256 PUSH1 0x2 ADD PUSH1 0x1 SWAP1 SLOAD SWAP1 PUSH2 0x100 EXP SWAP1 DIV PUSH1 0xFF AND ISZERO PUSH2 0x547 JUMPI PUSH1 0x40 MLOAD PUSH32 0x8C379A000000000000000000000000000000000000000000000000000000000 DUP2 MSTORE PUSH1 0x4 ADD PUSH2 0x53E SWAP1 PUSH2 0xE01 JUMP JUMPDEST PUSH1 0x40 MLOAD DUP1 SWAP2 SUB SWAP1 REVERT JUMPDEST PUSH1 0x60 PUSH1 0x1 ISZERO ISZERO DUP6 ISZERO ISZERO EQ ISZERO PUSH2 0x5EA JUMPI PUSH1 0x40 MLOAD DUP1 PUSH1 0x40 ADD PUSH1 0x40 MSTORE DUP1 PUSH1 0x3 DUP2 MSTORE PUSH1 0x20 ADD PUSH32 0x7965730000000000000000000000000000000000000000000000000000000000 DUP2 MSTORE POP SWAP1 POP PUSH1 0x8 DUP8 PUSH1 0x40 MLOAD PUSH2 0x59E SWAP2 SWAP1 PUSH2 0xCC2 JUMP JUMPDEST SWAP1 DUP2 MSTORE PUSH1 0x20 ADD PUSH1 0x40 MLOAD DUP1 SWAP2 SUB SWAP1 KECCAK256 PUSH1 0x1 ADD DUP2 SWAP1 DUP1 PUSH1 0x1 DUP2 SLOAD ADD DUP1 DUP3 SSTORE DUP1 SWAP2 POP POP PUSH1 0x1 SWAP1 SUB SWAP1 PUSH1 0x0 MSTORE PUSH1 0x20 PUSH1 0x0 KECCAK256 ADD PUSH1 0x0 SWAP1 SWAP2 SWAP1 SWAP2 SWAP1 SWAP2 POP SWAP1 DUP1 MLOAD SWAP1 PUSH1 0x20 ADD SWAP1 PUSH2 0x5E8 SWAP3 SWAP2 SWAP1 PUSH2 0x89B JUMP JUMPDEST POP JUMPDEST PUSH1 0x0 ISZERO ISZERO DUP6 ISZERO ISZERO EQ ISZERO PUSH2 0x68B JUMPI PUSH1 0x40 MLOAD DUP1 PUSH1 0x40 ADD PUSH1 0x40 MSTORE DUP1 PUSH1 0x2 DUP2 MSTORE PUSH1 0x20 ADD PUSH32 0x6E6F000000000000000000000000000000000000000000000000000000000000 DUP2 MSTORE POP SWAP1 POP PUSH1 0x8 DUP8 PUSH1 0x40 MLOAD PUSH2 0x63F SWAP2 SWAP1 PUSH2 0xCC2 JUMP JUMPDEST SWAP1 DUP2 MSTORE PUSH1 0x20 ADD PUSH1 0x40 MLOAD DUP1 SWAP2 SUB SWAP1 KECCAK256 PUSH1 0x1 ADD DUP2 SWAP1 DUP1 PUSH1 0x1 DUP2 SLOAD ADD DUP1 DUP3 SSTORE DUP1 SWAP2 POP POP PUSH1 0x1 SWAP1 SUB SWAP1 PUSH1 0x0 MSTORE PUSH1 0x20 PUSH1 0x0 KECCAK256 ADD PUSH1 0x0 SWAP1 SWAP2 SWAP1 SWAP2 SWAP1 SWAP2 POP SWAP1 DUP1 MLOAD SWAP1 PUSH1 0x20 ADD SWAP1 PUSH2 0x689 SWAP3 SWAP2 SWAP1 PUSH2 0x89B JUMP JUMPDEST POP JUMPDEST PUSH1 0x40 MLOAD DUP1 PUSH1 0x80 ADD PUSH1 0x40 MSTORE DUP1 DUP9 DUP2 MSTORE PUSH1 0x20 ADD DUP8 DUP2 MSTORE PUSH1 0x20 ADD DUP7 ISZERO ISZERO DUP2 MSTORE PUSH1 0x20 ADD PUSH1 0x1 PUSH1 0x7 PUSH1 0x0 CALLER PUSH20 0xFFFFFFFFFFFFFFFFFFFFFFFFFFFFFFFFFFFFFFFF AND PUSH20 0xFFFFFFFFFFFFFFFFFFFFFFFFFFFFFFFFFFFFFFFF AND DUP2 MSTORE PUSH1 0x20 ADD SWAP1 DUP2 MSTORE PUSH1 0x20 ADD PUSH1 0x0 KECCAK256 PUSH1 0x2 ADD PUSH1 0x1 PUSH2 0x100 EXP DUP2 SLOAD DUP2 PUSH1 0xFF MUL NOT AND SWAP1 DUP4 ISZERO ISZERO MUL OR SWAP1 SSTORE ISZERO ISZERO DUP2 MSTORE POP PUSH1 0x7 PUSH1 0x0 CALLER PUSH20 0xFFFFFFFFFFFFFFFFFFFFFFFFFFFFFFFFFFFFFFFF AND PUSH20 0xFFFFFFFFFFFFFFFFFFFFFFFFFFFFFFFFFFFFFFFF AND DUP2 MSTORE PUSH1 0x20 ADD SWAP1 DUP2 MSTORE PUSH1 0x20 ADD PUSH1 0x0 KECCAK256 PUSH1 0x0 DUP3 ADD MLOAD DUP2 PUSH1 0x0 ADD SWAP1 DUP1 MLOAD SWAP1 PUSH1 0x20 ADD SWAP1 PUSH2 0x764 SWAP3 SWAP2 SWAP1 PUSH2 0x89B JUMP JUMPDEST POP PUSH1 0x20 DUP3 ADD MLOAD DUP2 PUSH1 0x1 ADD SSTORE PUSH1 0x40 DUP3 ADD MLOAD DUP2 PUSH1 0x2 ADD PUSH1 0x0 PUSH2 0x100 EXP DUP2 SLOAD DUP2 PUSH1 0xFF MUL NOT AND SWAP1 DUP4 ISZERO ISZERO MUL OR SWAP1 SSTORE POP PUSH1 0x60 DUP3 ADD MLOAD DUP2 PUSH1 0x2 ADD PUSH1 0x1 PUSH2 0x100 EXP DUP2 SLOAD DUP2 PUSH1 0xFF MUL NOT AND SWAP1 DUP4 ISZERO ISZERO MUL OR SWAP1 SSTORE POP SWAP1 POP POP CALLER PUSH20 0xFFFFFFFFFFFFFFFFFFFFFFFFFFFFFFFFFFFFFFFF AND PUSH32 0xFA041DD7FDA6FBB9D48ACA1D7DA5529C066FD2AF30330FC5C4102316813CBDDB DUP7 PUSH1 0x40 MLOAD PUSH2 0x7F8 SWAP2 SWAP1 PUSH2 0xD82 JUMP JUMPDEST PUSH1 0x40 MLOAD DUP1 SWAP2 SUB SWAP1 LOG2 DUP1 SWAP4 POP POP POP POP SWAP4 SWAP3 POP POP POP JUMP JUMPDEST PUSH1 0x1 DUP1 SLOAD PUSH2 0x81A SWAP1 PUSH2 0xF0B JUMP JUMPDEST DUP1 PUSH1 0x1F ADD PUSH1 0x20 DUP1 SWAP2 DIV MUL PUSH1 0x20 ADD PUSH1 0x40 MLOAD SWAP1 DUP2 ADD PUSH1 0x40 MSTORE DUP1 SWAP3 SWAP2 SWAP1 DUP2 DUP2 MSTORE PUSH1 0x20 ADD DUP3 DUP1 SLOAD PUSH2 0x846 SWAP1 PUSH2 0xF0B JUMP JUMPDEST DUP1 ISZERO PUSH2 0x893 JUMPI DUP1 PUSH1 0x1F LT PUSH2 0x868 JUMPI PUSH2 0x100 DUP1 DUP4 SLOAD DIV MUL DUP4 MSTORE SWAP2 PUSH1 0x20 ADD SWAP2 PUSH2 0x893 JUMP JUMPDEST DUP3 ADD SWAP2 SWAP1 PUSH1 0x0 MSTORE PUSH1 0x20 PUSH1 0x0 KECCAK256 SWAP1 JUMPDEST DUP2 SLOAD DUP2 MSTORE SWAP1 PUSH1 0x1 ADD SWAP1 PUSH1 0x20 ADD DUP1 DUP4 GT PUSH2 0x876 JUMPI DUP3 SWAP1 SUB PUSH1 0x1F AND DUP3 ADD SWAP2 JUMPDEST POP POP POP POP POP DUP2 JUMP JUMPDEST DUP3 DUP1 SLOAD PUSH2 0x8A7 SWAP1 PUSH2 0xF0B JUMP JUMPDEST SWAP1 PUSH1 0x0 MSTORE PUSH1 0x20 PUSH1 0x0 KECCAK256 SWAP1 PUSH1 0x1F ADD PUSH1 0x20 SWAP1 DIV DUP2 ADD SWAP3 DUP3 PUSH2 0x8C9 JUMPI PUSH1 0x0 DUP6 SSTORE PUSH2 0x910 JUMP JUMPDEST DUP3 PUSH1 0x1F LT PUSH2 0x8E2 JUMPI DUP1 MLOAD PUSH1 0xFF NOT AND DUP4 DUP1 ADD OR DUP6 SSTORE PUSH2 0x910 JUMP JUMPDEST DUP3 DUP1 ADD PUSH1 0x1 ADD DUP6 SSTORE DUP3 ISZERO PUSH2 0x910 JUMPI SWAP2 DUP3 ADD JUMPDEST DUP3 DUP2 GT ISZERO PUSH2 0x90F JUMPI DUP3 MLOAD DUP3 SSTORE SWAP2 PUSH1 0x20 ADD SWAP2 SWAP1 PUSH1 0x1 ADD SWAP1 PUSH2 0x8F4 JUMP JUMPDEST JUMPDEST POP SWAP1 POP PUSH2 0x91D SWAP2 SWAP1 PUSH2 0x921 JUMP JUMPDEST POP SWAP1 JUMP JUMPDEST JUMPDEST DUP1 DUP3 GT ISZERO PUSH2 0x93A JUMPI PUSH1 0x0 DUP2 PUSH1 0x0 SWAP1 SSTORE POP PUSH1 0x1 ADD PUSH2 0x922 JUMP JUMPDEST POP SWAP1 JUMP JUMPDEST PUSH1 0x0 PUSH2 0x951 PUSH2 0x94C DUP5 PUSH2 0xE46 JUMP JUMPDEST PUSH2 0xE21 JUMP JUMPDEST SWAP1 POP DUP3 DUP2 MSTORE PUSH1 0x20 DUP2 ADD DUP5 DUP5 DUP5 ADD GT ISZERO PUSH2 0x969 JUMPI PUSH1 0x0 DUP1 REVERT JUMPDEST PUSH2 0x974 DUP5 DUP3 DUP6 PUSH2 0xEC9 JUMP JUMPDEST POP SWAP4 SWAP3 POP POP POP JUMP JUMPDEST PUSH1 0x0 DUP2 CALLDATALOAD SWAP1 POP PUSH2 0x98B DUP2 PUSH2 0x1171 JUMP JUMPDEST SWAP3 SWAP2 POP POP JUMP JUMPDEST PUSH1 0x0 DUP3 PUSH1 0x1F DUP4 ADD SLT PUSH2 0x9A2 JUMPI PUSH1 0x0 DUP1 REVERT JUMPDEST DUP2 CALLDATALOAD PUSH2 0x9B2 DUP5 DUP3 PUSH1 0x20 DUP7 ADD PUSH2 0x93E JUMP JUMPDEST SWAP2 POP POP SWAP3 SWAP2 POP POP JUMP JUMPDEST PUSH1 0x0 DUP2 CALLDATALOAD SWAP1 POP PUSH2 0x9CA DUP2 PUSH2 0x1188 JUMP JUMPDEST SWAP3 SWAP2 POP POP JUMP JUMPDEST PUSH1 0x0 PUSH1 0x20 DUP3 DUP5 SUB SLT ISZERO PUSH2 0x9E2 JUMPI PUSH1 0x0 DUP1 REVERT JUMPDEST PUSH1 0x0 DUP3 ADD CALLDATALOAD PUSH8 0xFFFFFFFFFFFFFFFF DUP2 GT ISZERO PUSH2 0x9FC JUMPI PUSH1 0x0 DUP1 REVERT JUMPDEST PUSH2 0xA08 DUP5 DUP3 DUP6 ADD PUSH2 0x991 JUMP JUMPDEST SWAP2 POP POP SWAP3 SWAP2 POP POP JUMP JUMPDEST PUSH1 0x0 DUP1 PUSH1 0x0 PUSH1 0x60 DUP5 DUP7 SUB SLT ISZERO PUSH2 0xA26 JUMPI PUSH1 0x0 DUP1 REVERT JUMPDEST PUSH1 0x0 DUP5 ADD CALLDATALOAD PUSH8 0xFFFFFFFFFFFFFFFF DUP2 GT ISZERO PUSH2 0xA40 JUMPI PUSH1 0x0 DUP1 REVERT JUMPDEST PUSH2 0xA4C DUP7 DUP3 DUP8 ADD PUSH2 0x991 JUMP JUMPDEST SWAP4 POP POP PUSH1 0x20 PUSH2 0xA5D DUP7 DUP3 DUP8 ADD PUSH2 0x9BB JUMP JUMPDEST SWAP3 POP POP PUSH1 0x40 PUSH2 0xA6E DUP7 DUP3 DUP8 ADD PUSH2 0x97C JUMP JUMPDEST SWAP2 POP POP SWAP3 POP SWAP3 POP SWAP3 JUMP JUMPDEST PUSH2 0xA81 DUP2 PUSH2 0xEB3 JUMP JUMPDEST DUP3 MSTORE POP POP JUMP JUMPDEST PUSH1 0x0 PUSH2 0xA92 DUP3 PUSH2 0xE8C JUMP JUMPDEST PUSH2 0xA9C DUP2 DUP6 PUSH2 0xE97 JUMP JUMPDEST SWAP4 POP PUSH2 0xAAC DUP2 DUP6 PUSH1 0x20 DUP7 ADD PUSH2 0xED8 JUMP JUMPDEST PUSH2 0xAB5 DUP2 PUSH2 0x1044 JUMP JUMPDEST DUP5 ADD SWAP2 POP POP SWAP3 SWAP2 POP POP JUMP JUMPDEST PUSH1 0x0 PUSH2 0xACB DUP3 PUSH2 0xE8C JUMP JUMPDEST PUSH2 0xAD5 DUP2 DUP6 PUSH2 0xEA8 JUMP JUMPDEST SWAP4 POP PUSH2 0xAE5 DUP2 DUP6 PUSH1 0x20 DUP7 ADD PUSH2 0xED8 JUMP JUMPDEST DUP1 DUP5 ADD SWAP2 POP POP SWAP3 SWAP2 POP POP JUMP JUMPDEST PUSH1 0x0 DUP2 SLOAD PUSH2 0xAFE DUP2 PUSH2 0xF0B JUMP JUMPDEST PUSH2 0xB08 DUP2 DUP7 PUSH2 0xE97 JUMP JUMPDEST SWAP5 POP PUSH1 0x1 DUP3 AND PUSH1 0x0 DUP2 EQ PUSH2 0xB23 JUMPI PUSH1 0x1 DUP2 EQ PUSH2 0xB35 JUMPI PUSH2 0xB68 JUMP JUMPDEST PUSH1 0xFF NOT DUP4 AND DUP7 MSTORE PUSH1 0x20 DUP7 ADD SWAP4 POP PUSH2 0xB68 JUMP JUMPDEST PUSH2 0xB3E DUP6 PUSH2 0xE77 JUMP JUMPDEST PUSH1 0x0 JUMPDEST DUP4 DUP2 LT ISZERO PUSH2 0xB60 JUMPI DUP2 SLOAD DUP2 DUP10 ADD MSTORE PUSH1 0x1 DUP3 ADD SWAP2 POP PUSH1 0x20 DUP2 ADD SWAP1 POP PUSH2 0xB41 JUMP JUMPDEST DUP1 DUP9 ADD SWAP6 POP POP POP JUMPDEST POP POP POP SWAP3 SWAP2 POP POP JUMP JUMPDEST PUSH1 0x0 DUP2 SLOAD PUSH2 0xB7E DUP2 PUSH2 0xF0B JUMP JUMPDEST PUSH2 0xB88 DUP2 DUP7 PUSH2 0xEA8 JUMP JUMPDEST SWAP5 POP PUSH1 0x1 DUP3 AND PUSH1 0x0 DUP2 EQ PUSH2 0xBA3 JUMPI PUSH1 0x1 DUP2 EQ PUSH2 0xBB4 JUMPI PUSH2 0xBE7 JUMP JUMPDEST PUSH1 0xFF NOT DUP4 AND DUP7 MSTORE DUP2 DUP7 ADD SWAP4 POP PUSH2 0xBE7 JUMP JUMPDEST PUSH2 0xBBD DUP6 PUSH2 0xE77 JUMP JUMPDEST PUSH1 0x0 JUMPDEST DUP4 DUP2 LT ISZERO PUSH2 0xBDF JUMPI DUP2 SLOAD DUP2 DUP10 ADD MSTORE PUSH1 0x1 DUP3 ADD SWAP2 POP PUSH1 0x20 DUP2 ADD SWAP1 POP PUSH2 0xBC0 JUMP JUMPDEST DUP4 DUP9 ADD SWAP6 POP POP POP JUMPDEST POP POP POP SWAP3 SWAP2 POP POP JUMP JUMPDEST PUSH1 0x0 PUSH2 0xBFD PUSH1 0x19 DUP4 PUSH2 0xEA8 JUMP JUMPDEST SWAP2 POP PUSH2 0xC08 DUP3 PUSH2 0x1055 JUMP JUMPDEST PUSH1 0x19 DUP3 ADD SWAP1 POP SWAP2 SWAP1 POP JUMP JUMPDEST PUSH1 0x0 PUSH2 0xC20 PUSH1 0x4 DUP4 PUSH2 0xEA8 JUMP JUMPDEST SWAP2 POP PUSH2 0xC2B DUP3 PUSH2 0x107E JUMP JUMPDEST PUSH1 0x4 DUP3 ADD SWAP1 POP SWAP2 SWAP1 POP JUMP JUMPDEST PUSH1 0x0 PUSH2 0xC43 PUSH1 0x2 DUP4 PUSH2 0xEA8 JUMP JUMPDEST SWAP2 POP PUSH2 0xC4E DUP3 PUSH2 0x10A7 JUMP JUMPDEST PUSH1 0x2 DUP3 ADD SWAP1 POP SWAP2 SWAP1 POP JUMP JUMPDEST PUSH1 0x0 PUSH2 0xC66 PUSH1 0x3 DUP4 PUSH2 0xEA8 JUMP JUMPDEST SWAP2 POP PUSH2 0xC71 DUP3 PUSH2 0x10D0 JUMP JUMPDEST PUSH1 0x3 DUP3 ADD SWAP1 POP SWAP2 SWAP1 POP JUMP JUMPDEST PUSH1 0x0 PUSH2 0xC89 PUSH1 0x2C DUP4 PUSH2 0xE97 JUMP JUMPDEST SWAP2 POP PUSH2 0xC94 DUP3 PUSH2 0x10F9 JUMP JUMPDEST PUSH1 0x40 DUP3 ADD SWAP1 POP SWAP2 SWAP1 POP JUMP JUMPDEST PUSH1 0x0 PUSH2 0xCAC PUSH1 0x18 DUP4 PUSH2 0xE97 JUMP JUMPDEST SWAP2 POP PUSH2 0xCB7 DUP3 PUSH2 0x1148 JUMP JUMPDEST PUSH1 0x20 DUP3 ADD SWAP1 POP SWAP2 SWAP1 POP JUMP JUMPDEST PUSH1 0x0 PUSH2 0xCCE DUP3 DUP5 PUSH2 0xAC0 JUMP JUMPDEST SWAP2 POP DUP2 SWAP1 POP SWAP3 SWAP2 POP POP JUMP JUMPDEST PUSH1 0x0 PUSH2 0xCE5 DUP3 DUP6 PUSH2 0xAC0 JUMP JUMPDEST SWAP2 POP PUSH2 0xCF1 DUP3 DUP5 PUSH2 0xB71 JUMP JUMPDEST SWAP2 POP DUP2 SWAP1 POP SWAP4 SWAP3 POP POP POP JUMP JUMPDEST PUSH1 0x0 PUSH2 0xD09 DUP3 DUP5 PUSH2 0xAC0 JUMP JUMPDEST SWAP2 POP PUSH2 0xD14 DUP3 PUSH2 0xBF0 JUMP JUMPDEST SWAP2 POP DUP2 SWAP1 POP SWAP3 SWAP2 POP POP JUMP JUMPDEST PUSH1 0x0 PUSH2 0xD2B DUP3 DUP5 PUSH2 0xAC0 JUMP JUMPDEST SWAP2 POP PUSH2 0xD36 DUP3 PUSH2 0xC13 JUMP JUMPDEST SWAP2 POP DUP2 SWAP1 POP SWAP3 SWAP2 POP POP JUMP JUMPDEST PUSH1 0x0 PUSH2 0xD4D DUP3 DUP5 PUSH2 0xB71 JUMP JUMPDEST SWAP2 POP DUP2 SWAP1 POP SWAP3 SWAP2 POP POP JUMP JUMPDEST PUSH1 0x0 PUSH2 0xD63 DUP3 PUSH2 0xC36 JUMP JUMPDEST SWAP2 POP DUP2 SWAP1 POP SWAP2 SWAP1 POP JUMP JUMPDEST PUSH1 0x0 PUSH2 0xD78 DUP3 PUSH2 0xC59 JUMP JUMPDEST SWAP2 POP DUP2 SWAP1 POP SWAP2 SWAP1 POP JUMP JUMPDEST PUSH1 0x0 PUSH1 0x20 DUP3 ADD SWAP1 POP PUSH2 0xD97 PUSH1 0x0 DUP4 ADD DUP5 PUSH2 0xA78 JUMP JUMPDEST SWAP3 SWAP2 POP POP JUMP JUMPDEST PUSH1 0x0 PUSH1 0x20 DUP3 ADD SWAP1 POP DUP2 DUP2 SUB PUSH1 0x0 DUP4 ADD MSTORE PUSH2 0xDB7 DUP2 DUP5 PUSH2 0xA87 JUMP JUMPDEST SWAP1 POP SWAP3 SWAP2 POP POP JUMP JUMPDEST PUSH1 0x0 PUSH1 0x20 DUP3 ADD SWAP1 POP DUP2 DUP2 SUB PUSH1 0x0 DUP4 ADD MSTORE PUSH2 0xDD9 DUP2 DUP5 PUSH2 0xAF1 JUMP JUMPDEST SWAP1 POP SWAP3 SWAP2 POP POP JUMP JUMPDEST PUSH1 0x0 PUSH1 0x20 DUP3 ADD SWAP1 POP DUP2 DUP2 SUB PUSH1 0x0 DUP4 ADD MSTORE PUSH2 0xDFA DUP2 PUSH2 0xC7C JUMP JUMPDEST SWAP1 POP SWAP2 SWAP1 POP JUMP JUMPDEST PUSH1 0x0 PUSH1 0x20 DUP3 ADD SWAP1 POP DUP2 DUP2 SUB PUSH1 0x0 DUP4 ADD MSTORE PUSH2 0xE1A DUP2 PUSH2 0xC9F JUMP JUMPDEST SWAP1 POP SWAP2 SWAP1 POP JUMP JUMPDEST PUSH1 0x0 PUSH2 0xE2B PUSH2 0xE3C JUMP JUMPDEST SWAP1 POP PUSH2 0xE37 DUP3 DUP3 PUSH2 0xF3D JUMP JUMPDEST SWAP2 SWAP1 POP JUMP JUMPDEST PUSH1 0x0 PUSH1 0x40 MLOAD SWAP1 POP SWAP1 JUMP JUMPDEST PUSH1 0x0 PUSH8 0xFFFFFFFFFFFFFFFF DUP3 GT ISZERO PUSH2 0xE61 JUMPI PUSH2 0xE60 PUSH2 0x1015 JUMP JUMPDEST JUMPDEST PUSH2 0xE6A DUP3 PUSH2 0x1044 JUMP JUMPDEST SWAP1 POP PUSH1 0x20 DUP2 ADD SWAP1 POP SWAP2 SWAP1 POP JUMP JUMPDEST PUSH1 0x0 DUP2 SWAP1 POP DUP2 PUSH1 0x0 MSTORE PUSH1 0x20 PUSH1 0x0 KECCAK256 SWAP1 POP SWAP2 SWAP1 POP JUMP JUMPDEST PUSH1 0x0 DUP2 MLOAD SWAP1 POP SWAP2 SWAP1 POP JUMP JUMPDEST PUSH1 0x0 DUP3 DUP3 MSTORE PUSH1 0x20 DUP3 ADD SWAP1 POP SWAP3 SWAP2 POP POP JUMP JUMPDEST PUSH1 0x0 DUP2 SWAP1 POP SWAP3 SWAP2 POP POP JUMP JUMPDEST PUSH1 0x0 DUP2 ISZERO ISZERO SWAP1 POP SWAP2 SWAP1 POP JUMP JUMPDEST PUSH1 0x0 DUP2 SWAP1 POP SWAP2 SWAP1 POP JUMP JUMPDEST DUP3 DUP2 DUP4 CALLDATACOPY PUSH1 0x0 DUP4 DUP4 ADD MSTORE POP POP POP JUMP JUMPDEST PUSH1 0x0 JUMPDEST DUP4 DUP2 LT ISZERO PUSH2 0xEF6 JUMPI DUP1 DUP3 ADD MLOAD DUP2 DUP5 ADD MSTORE PUSH1 0x20 DUP2 ADD SWAP1 POP PUSH2 0xEDB JUMP JUMPDEST DUP4 DUP2 GT ISZERO PUSH2 0xF05 JUMPI PUSH1 0x0 DUP5 DUP5 ADD MSTORE JUMPDEST POP POP POP POP JUMP JUMPDEST PUSH1 0x0 PUSH1 0x2 DUP3 DIV SWAP1 POP PUSH1 0x1 DUP3 AND DUP1 PUSH2 0xF23 JUMPI PUSH1 0x7F DUP3 AND SWAP2 POP JUMPDEST PUSH1 0x20 DUP3 LT DUP2 EQ ISZERO PUSH2 0xF37 JUMPI PUSH2 0xF36 PUSH2 0xFE6 JUMP JUMPDEST JUMPDEST POP SWAP2 SWAP1 POP JUMP JUMPDEST PUSH2 0xF46 DUP3 PUSH2 0x1044 JUMP JUMPDEST DUP2 ADD DUP2 DUP2 LT PUSH8 0xFFFFFFFFFFFFFFFF DUP3 GT OR ISZERO PUSH2 0xF65 JUMPI PUSH2 0xF64 PUSH2 0x1015 JUMP JUMPDEST JUMPDEST DUP1 PUSH1 0x40 MSTORE POP POP POP JUMP JUMPDEST PUSH1 0x0 PUSH2 0xF79 DUP3 PUSH2 0xEBF JUMP JUMPDEST SWAP2 POP PUSH32 0xFFFFFFFFFFFFFFFFFFFFFFFFFFFFFFFFFFFFFFFFFFFFFFFFFFFFFFFFFFFFFFFF DUP3 EQ ISZERO PUSH2 0xFAC JUMPI PUSH2 0xFAB PUSH2 0xFB7 JUMP JUMPDEST JUMPDEST PUSH1 0x1 DUP3 ADD SWAP1 POP SWAP2 SWAP1 POP JUMP JUMPDEST PUSH32 0x4E487B7100000000000000000000000000000000000000000000000000000000 PUSH1 0x0 MSTORE PUSH1 0x11 PUSH1 0x4 MSTORE PUSH1 0x24 PUSH1 0x0 REVERT JUMPDEST PUSH32 0x4E487B7100000000000000000000000000000000000000000000000000000000 PUSH1 0x0 MSTORE PUSH1 0x22 PUSH1 0x4 MSTORE PUSH1 0x24 PUSH1 0x0 REVERT JUMPDEST PUSH32 0x4E487B7100000000000000000000000000000000000000000000000000000000 PUSH1 0x0 MSTORE PUSH1 0x41 PUSH1 0x4 MSTORE PUSH1 0x24 PUSH1 0x0 REVERT JUMPDEST PUSH1 0x0 PUSH1 0x1F NOT PUSH1 0x1F DUP4 ADD AND SWAP1 POP SWAP2 SWAP1 POP JUMP JUMPDEST PUSH32 0x20686173206265656E206465636C617265642077696E6E657200000000000000 PUSH1 0x0 DUP3 ADD MSTORE POP JUMP JUMPDEST PUSH32 0x6C6F737400000000000000000000000000000000000000000000000000000000 PUSH1 0x0 DUP3 ADD MSTORE POP JUMP JUMPDEST PUSH32 0x6E6F000000000000000000000000000000000000000000000000000000000000 PUSH1 0x0 DUP3 ADD MSTORE POP JUMP JUMPDEST PUSH32 0x7965730000000000000000000000000000000000000000000000000000000000 PUSH1 0x0 DUP3 ADD MSTORE POP JUMP JUMPDEST PUSH32 0x596F7520617265206E6F7420656C696769626C65212074727920616761696E20 PUSH1 0x0 DUP3 ADD MSTORE PUSH32 0x696E206665772079656172730000000000000000000000000000000000000000 PUSH1 0x20 DUP3 ADD MSTORE POP JUMP JUMPDEST PUSH32 0x596F752068617665206265656E20726567697374657265640000000000000000 PUSH1 0x0 DUP3 ADD MSTORE POP JUMP JUMPDEST PUSH2 0x117A DUP2 PUSH2 0xEB3 JUMP JUMPDEST DUP2 EQ PUSH2 0x1185 JUMPI PUSH1 0x0 DUP1 REVERT JUMPDEST POP JUMP JUMPDEST PUSH2 0x1191 DUP2 PUSH2 0xEBF JUMP JUMPDEST DUP2 EQ PUSH2 0x119C JUMPI PUSH1 0x0 DUP1 REVERT JUMPDEST POP JUMP INVALID LOG2 PUSH5 0x6970667358 0x22 SLT KECCAK256 ADDMOD MULMOD 0xE SSTORE ADDMOD 0xE6 0xA6 0xBA BLOCKHASH 0xAF SWAP16 0xB8 PUSH4 0x3CCCA799 PUSH19 0x6FCFC6839755F7233C68A0734FC364736F6C63 NUMBER STOP ADDMOD MUL STOP CALLER "
				},
				"gasEstimates": {
					"creation": {
						"codeDepositCost": "913000",
						"executionCost": "948",
						"totalCost": "913948"
					},
					"external": {
						"declare_winner(string)": "infinite",
						"message()": "infinite",
						"registerVoter(string,uint256,bool)": "infinite"
					}
				},
				"methodIdentifiers": {
					"declare_winner(string)": "35da56dc",
					"message()": "e21f37ce",
					"registerVoter(string,uint256,bool)": "740f9660"
				}
			},
			"storageLayout": {
				"storage": [
					{
						"astId": 3,
						"contract": "VotingContract.sol:VotingSystem",
						"label": "voter_addr",
						"offset": 0,
						"slot": "0",
						"type": "t_address"
					},
					{
						"astId": 5,
						"contract": "VotingContract.sol:VotingSystem",
						"label": "message",
						"offset": 0,
						"slot": "1",
						"type": "t_string_storage"
					},
					{
						"astId": 23,
						"contract": "VotingContract.sol:VotingSystem",
						"label": "voter",
						"offset": 0,
						"slot": "2",
						"type": "t_struct(Voter)14_storage"
					},
					{
						"astId": 26,
						"contract": "VotingContract.sol:VotingSystem",
						"label": "candidate",
						"offset": 0,
						"slot": "5",
						"type": "t_struct(Candidate)20_storage"
					},
					{
						"astId": 31,
						"contract": "VotingContract.sol:VotingSystem",
						"label": "voter_details",
						"offset": 0,
						"slot": "7",
						"type": "t_mapping(t_address,t_struct(Voter)14_storage)"
					},
					{
						"astId": 36,
						"contract": "VotingContract.sol:VotingSystem",
						"label": "candidate_details",
						"offset": 0,
						"slot": "8",
						"type": "t_mapping(t_string_memory_ptr,t_struct(Candidate)20_storage)"
					}
				],
				"types": {
					"t_address": {
						"encoding": "inplace",
						"label": "address",
						"numberOfBytes": "20"
					},
					"t_array(t_string_storage)dyn_storage": {
						"base": "t_string_storage",
						"encoding": "dynamic_array",
						"label": "string[]",
						"numberOfBytes": "32"
					},
					"t_bool": {
						"encoding": "inplace",
						"label": "bool",
						"numberOfBytes": "1"
					},
					"t_mapping(t_address,t_struct(Voter)14_storage)": {
						"encoding": "mapping",
						"key": "t_address",
						"label": "mapping(address => struct VotingSystem.Voter)",
						"numberOfBytes": "32",
						"value": "t_struct(Voter)14_storage"
					},
					"t_mapping(t_string_memory_ptr,t_struct(Candidate)20_storage)": {
						"encoding": "mapping",
						"key": "t_string_memory_ptr",
						"label": "mapping(string => struct VotingSystem.Candidate)",
						"numberOfBytes": "32",
						"value": "t_struct(Candidate)20_storage"
					},
					"t_string_memory_ptr": {
						"encoding": "bytes",
						"label": "string",
						"numberOfBytes": "32"
					},
					"t_string_storage": {
						"encoding": "bytes",
						"label": "string",
						"numberOfBytes": "32"
					},
					"t_struct(Candidate)20_storage": {
						"encoding": "inplace",
						"label": "struct VotingSystem.Candidate",
						"members": [
							{
								"astId": 16,
								"contract": "VotingContract.sol:VotingSystem",
								"label": "name",
								"offset": 0,
								"slot": "0",
								"type": "t_string_storage"
							},
							{
								"astId": 19,
								"contract": "VotingContract.sol:VotingSystem",
								"label": "votes",
								"offset": 0,
								"slot": "1",
								"type": "t_array(t_string_storage)dyn_storage"
							}
						],
						"numberOfBytes": "64"
					},
					"t_struct(Voter)14_storage": {
						"encoding": "inplace",
						"label": "struct VotingSystem.Voter",
						"members": [
							{
								"astId": 7,
								"contract": "VotingContract.sol:VotingSystem",
								"label": "name",
								"offset": 0,
								"slot": "0",
								"type": "t_string_storage"
							},
							{
								"astId": 9,
								"contract": "VotingContract.sol:VotingSystem",
								"label": "age",
								"offset": 0,
								"slot": "1",
								"type": "t_uint256"
							},
							{
								"astId": 11,
								"contract": "VotingContract.sol:VotingSystem",
								"label": "vote",
								"offset": 0,
								"slot": "2",
								"type": "t_bool"
							},
							{
								"astId": 13,
								"contract": "VotingContract.sol:VotingSystem",
								"label": "hasVoted",
								"offset": 1,
								"slot": "2",
								"type": "t_bool"
							}
						],
						"numberOfBytes": "96"
					},
					"t_uint256": {
						"encoding": "inplace",
						"label": "uint256",
						"numberOfBytes": "32"
					}
				}
			},
			"userdoc": {
				"kind": "user",
				"methods": {},
				"version": 1
			}
		}
	}
}